:020000040000FA
:100000000C9461000C947E000C947E000C947E0095
:100010000C947E000C947E000C94750E0C947E0063
:100020000C947E000C947E000C947E000C947E0058
:100030000C947E000C947E000C947E000C947E0048
:100040000C9495020C947E000C947E000C947E001F
:100050000C947E000C947E000C947E000C947E0028
:100060000C947E000C947E0000000000230026000B
:10007000290000000000240027002A0000000000E2
:10008000250028002B0004040404040404040202D4
:100090000202020203030303030301020408102007
:1000A0004080010204081020010204081020000012
:1000B0000008000201000003040700000000000027
:1000C000000011241FBECFEFD8E0DEBFCDBF11E08E
:1000D000A0E0B1E0E2E2F0E202C005900D92AC34A3
:1000E000B107D9F721E0ACE4B1E001C01D92A83E10
:1000F000B207E1F70E94780E0C940F100C940000E8
:10010000833081F028F4813099F08230A9F008958D
:100110008730A9F08830C9F08430B1F48091800034
:100120008F7D03C0809180008F7780938000089539
:1001300084B58F7784BD089584B58F7DFBCF809182
:10014000B0008F778093B00008958091B0008F7DCC
:10015000F9CF1F93CF93DF93282F30E0F901E255B9
:10016000FF4F8491F901E656FF4FD491F901EA5708
:10017000FF4FC491CC23A9F0162F81110E9480005B
:10018000EC2FF0E0EE0FFF1FE458FF4FA591B49164
:100190008FB7F894EC91111108C0D095DE23DC9351
:1001A0008FBFDF91CF911F910895DE2BF8CFCF93B2
:1001B000DF9390E0FC01E656FF4F24918A579F4F52
:1001C000FC0184918823D1F090E0880F991FFC01F5
:1001D000EE58FF4FA591B491FC01E458FF4FC59133
:1001E000D49161110EC09FB7F8948C91E22FE095E5
:1001F0008E238C932881E223E8839FBFDF91CF91E8
:1002000008958FB7F894EC91E22BEC938FBFF6CF63
:10021000A12C96EB692E90E0792E02EA10E02EE8F0
:10022000E22E20E0F22E32E0C32E49E0D42EF3017C
:100230008491F801B490F7019490992009F47CC05E
:1002400081110E948000E92DF0E0EE0FFF1FE859B8
:10025000FF4FA591B4918C91B82281E009F480E020
:10026000B82E882309F469C0A11067C0E091580135
:10027000F09159010FB6F8940F9287A1C7A281306F
:1002800009F057C0A285B385848195812681378185
:10029000EC013D832C8326813781E9019B838A838E
:1002A000CF01029611964D915C911297481759070C
:1002B00021F412963C932E931197138612862C915B
:1002C00021502C93A6892091E0012A1710F4A093C5
:1002D000E001DA9ED0011124A454BE4F11960D9076
:1002E000BC91A02DB583A48314962D913C911597B4
:1002F0003783268314962D913C911597E9019B83B2
:100300008A8315969C938E93149796899D9DD00110
:100310001124A454BE4FB387A2878C918F5F8C9316
:10032000E0914C01F0914D018689891710F40E94EB
:1003300079050F900FBE01C0B12C0E947905AB2C3E
:1003400076CFCF93DF9300D0CDB7DEB70E949C036A
:100350009A83898361E087E00E94A90068E170E0E8
:10036000CE0101960E94430860E087E00E94A90048
:1003700068E170E0CE0101960E94430888E190E0B8
:100380000E943706813031F70E94A6038091560102
:100390009091570190935901809358010E947B06D8
:1003A00061E087E00E94A90090E080E00E94BB0B22
:1003B000D1CFCF93DF9300D0CDB7DEB70E949C039F
:1003C0009A83898361E084E00E94A90061E370E080
:1003D000CE0101960E94430860E084E00E94A900DB
:1003E00061E370E0CE0101960E94430881E390E052
:1003F0000E943706813031F70E94A60310925901FE
:10040000109258010E947B0661E084E00E94A900DE
:1004100080915401909155010E94BB0B90E080E0C7
:100420000E94BB0BCFCFCF93DF9300D0CDB7DEB709
:100430000E949C039A83898361E082E00E94A90064
:100440006EE370E0CE0101960E94430860E082E016
:100450000E94A9006EE370E0CE0101960E9443085D
:100460008EE390E00E943706813031F70E94A603A8
:1004700080915201909153019093590180935801BA
:100480000E947B0661E082E00E94A90090E080E08B
:100490000E94BB0BD1CF0F931F9361E082E00E94BB
:1004A000D70061E084E00E94D70061E087E00E940D
:1004B000D70060E088E00E94D70000E511E021E06D
:1004C00048EC50E064E171E083E192E00E947F0C2F
:1004D000809150019091510190935901809358015E
:1004E00006E511E023E048EC50E063E271E089EDBD
:1004F00091E00E947F0C02E511E022E048EC50E020
:1005000060E371E081EA91E00E947F0C04E511E074
:1005100024E048EC50E060E471E088E091E00E9463
:100520007F0C1F910F910C94A90D1F920F920FB683
:100530000F9211242F933F938F939F93AF93BF9369
:100540008091870190918801A0918901B0918A01E1
:100550003091860123E0230F2D3758F50196A11D18
:10056000B11D209386018093870190938801A09309
:100570008901B0938A018091820190918301A091B9
:100580008401B09185010196A11DB11D8093820166
:1005900090938301A0938401B0938501BF91AF91A3
:1005A0009F918F913F912F910F900FBE0F901F90B1
:1005B000189526E8230F0296A11DB11DD2CFE09118
:1005C0008D01F0918E018081811107C08FEF9FEF27
:1005D00090937601809375010895E0918D01F091DB
:1005E0008E010580F681E02D80819181F1CFCF933E
:1005F000DF93DC011596ED91FC910680F781E02DEB
:10060000A489B5898685978520893189EC013D8348
:100610002C83C089D1899B838A83CF010C96119644
:100620002D913C9112972817390721F41296DC93EB
:10063000CE931197158A148A2C9121502C932091D6
:100640007301211157C0A285B385848195812681CC
:100650003781EC013D832C83C681D7819B838A83BC
:10066000CF01029611962D913C91129728173907C8
:1006700021F41296DC93CE931197138612862C9157
:1006800021502C93C6892091E0012C1710F4C093BF
:10069000E00129E02C9FE0011124C454DE4F0980C1
:1006A000DA81C02DD583C4834C815D815783468315
:1006B000AC81BD8113969C938E9312979D838C83FE
:1006C000A689A29FD0011124A454BE4FB387A2874C
:1006D0008C918F5F8C93A0914C01B0914D019689C4
:1006E00056968C91891730F581E080937201DF91E5
:1006F000CF910895A091A201B091A301B787A687D9
:1007000014962D913C911597318B208B1496CD9199
:10071000DC9115979B838A8315969C938E931497EF
:1007200081EA91E0958B848B8091A1018F5F80930A
:10073000A101D1CF80E0DBCF0FB6F8940F9280916A
:10074000790190917A010F900FBE08958091730105
:100750008F5F8093730108950FB6F8940F92FC0198
:10076000928D0F900FBE81E0911180E00895EF927D
:10077000FF920F931F93CF93DF93EC010FB6F89482
:100780000F921E8D7C0181E1E80EF11C01E0111633
:10079000D4F08FEF8E8F0F900FBE0FB6F8940F929C
:1007A0001D8D7E0188E0E80EF11C01E01116B4F009
:1007B0008FEF8D8F0F900FBEDF91CF911F910F9113
:1007C000FF90EF9008958989882319F3C7010E944B
:1007D000F7028111009372011150D9CF88858823C7
:1007E00039F3C7010E94F702811100937201115081
:1007F000DDCFCF93DF93FC01A085B185828193810A
:1008000024813581EC013D832C83C481D5819B8378
:100810008A8311968D919C9112978E179F0721F4D0
:100820001296DC93CE931197118610868C9181508D
:100830008C938C91DF91CF9108950F931F93CF9359
:10084000DF938C01FB0180819181D80113968F3F4A
:100850009807F1F4E801AF81B88512968D919C91CB
:10086000139793838283EC01FD83EC83B583A48388
:100870001396FC93EE93129711870087F8018081FD
:100880008F5F8083DF91CF911F910F910895D901E0
:1008900012962D913C911397E90148815981841753
:1008A0009507A8F7DACFFC0173836283918780876D
:1008B0004617570790F0421B530B848595854817C0
:1008C0005907C8F4BF016E5F7F4F80917E01909100
:1008D0007F010E941D0480E008954217530718F419
:1008E0006217730740F4BF016E5F7F4F80918001F4
:1008F00090918101EECF81E00895EF92FF920F93E6
:100900001F93CF93DF93EC018B017A016C857D857A
:10091000600F711F9801A701CE010E94530481113D
:1009200007C0DF91CF911F910F91FF90EF90089535
:100930008C859D85080F191FE889F989CE010995D5
:10094000E5CFEF92FF920F931F93CF93DF938C012C
:100950007B01E0918001F09181010580F681E02D1D
:10096000C681D781CE0102960E94F9038A8982FF4F
:100970000FC0A701B801CE010E947D04E889F98962
:10098000CE01DF91CF911F910F91FF90EF900994CD
:100990008E7F8A8BF3CFE0918001F091810180817D
:1009A00081110DC080917E0190917F019093810112
:1009B00080938001F0937F01E0937E01089505808C
:1009C000F681E02D6FEF7FEF808191810E94A1047D
:1009D000E2CFFF920F931F93CF93DF93EC01F62E9C
:1009E0000091790110917A0180914C0190914D0113
:1009F00002960E94F903CF3FDC07E9F5FF20D9F109
:100A0000E0919001F0919101A0914C01B0914D01C4
:100A10001596FC93EE931497A0914C01B0914D0163
:100A20008481958117969C938E93169780914C01A3
:100A300090914D01A481B581029613969C938E935B
:100A4000129780914C0190914D0102969583848379
:100A5000E0914C01F0914D018FE891E093878287FE
:100A600080918F018F5F80938F01DF91CF911F91D4
:100A70000F91FF900895C00FD11FE0914C01F091AC
:100A80004D01D383C28360914C0170914D01C01719
:100A9000D10768F480918B0190918C016E5F7F4F3C
:100AA000DF91CF911F910F91FF900C941D048091C5
:100AB0008D0190918E016E5F7F4F0E941D04809189
:100AC000750190917601C817D90778F6D093760111
:100AD000C0937501CACFFC010396928381832FEFE7
:100AE0003FEF3483238396838583908787831082A7
:100AF00008950F920FB6F8940F921F9211242F921F
:100B00003F924F925F926F927F928F929F92AF929D
:100B1000BF92CF92DF92EF92FF920F931F932F938A
:100B20003F934F935F936F937F938F939F93AF9375
:100B3000BF93CF93DF93EF93FF93A0914C01B091BC
:100B40004D010DB60D920EB60D9280917301882362
:100B500021F081E0809372015FC010927201A09138
:100B60004C01B0914D01E0914C01F0914D012D915E
:100B70003C918789908D82179307A8F080914C0152
:100B800090914D0180914C0190914D01259A2D9AA3
:100B90002FEF87EA91E6215080409040E1F700C0B6
:100BA00000001D9AF5CF2091E00189E001C021509D
:100BB000422F50E0849FF001859FF00D1124E454F2
:100BC000FE4F9081992399F3A181B28112960D90E5
:100BD000BC91A02DB283A183289FC0011124815410
:100BE0009E4FA817B90729F412968D919C91928374
:100BF000818389E0849FF001859FF00D1124E454E6
:100C0000FE4F0180F281E02D8681978190934D0106
:100C100080934C012093E001A0914C01B0914D01D3
:100C2000CD91CDBFDD91DEBFFF91EF91DF91CF91EF
:100C3000BF91AF919F918F917F916F915F914F91F4
:100C40003F912F911F910F91FF90EF90DF90CF90E8
:100C5000BF90AF909F908F907F906F905F904F90DC
:100C60003F902F901F900F900FBE0F9008950FB6DA
:100C7000F8940F92E0914C01F0914D0127A12230A0
:100C8000B9F0E0914C01F0914D0143A154A165A14F
:100C900076A143A354A365A376A3E0914C01F09100
:100CA0004D0121E027A361E00E94E9040E9479053B
:100CB0000F900FBE0FB6F8940F92E0914C01F09197
:100CC0004D0187A18230A9F4E0914C01F0914D01D2
:100CD00083A194A1A5A1B6A183A394A3A5A3B6A320
:100CE00081E0E0914C01F0914D0117A20F900FBEF1
:100CF000089580E0F6CF8F929F92BF92CF92DF92BD
:100D0000EF92FF920F931F93CF93DF930FB6F89458
:100D10000F928091730181508093730180917301D0
:100D2000882379F080E00F900FBEDF91CF911F9163
:100D30000F91FF90EF90DF90CF90BF909F908F909A
:100D400008958091E301882369F3E090A601F09073
:100D5000A701F0E0E0E039E041E08091A1018111DC
:100D60005EC0EF2B11F00E94DF02E0907001F09066
:100D70007101E114F10409F47DC189E0D82ECC247D
:100D8000C3940FEF1FEF80917301811161C1C09176
:100D90007901D0917A014E018FEF881A980A9092CA
:100DA0007A018092790181149104B9F480918D01C6
:100DB00090918E0120918B0130918C0130938E01A6
:100DC00020938D0190938C0180938B0180917B0106
:100DD0008F5F80937B010E94DF028091750190916B
:100DE0007601B12C8816990608F026C1E0914C01D5
:100DF000F0914D01E689DE9EF0011124E454FE4F8E
:100E00008081823010F0BB24B394809172018111F3
:100E100003C0BB2009F425C1C092720122C1D701D1
:100E20001696ED91FC91A489B589668577858089B0
:100E30009189EB019D838C8380899189EC017B836F
:100E40006A83BF01645F7F4F11960D911C911297C9
:100E50000617170721F412969C938E931197158A03
:100E6000148A8C9181508C93A285B385848195815D
:100E700066817781EC017D836C8366817781EB01EC
:100E80009B838A83CF01029611960D911C91129734
:100E90000817190721F412967C936E931197138605
:100EA00012862C9121502C93A6892091E0012A17BB
:100EB00010F4A093E0013A9FD0011124A454BE4F36
:100EC00011960D90BC91A02DB583A48314966D91BD
:100ED0007C9115977783668314966D917C91159715
:100EE000EB019B838A8315969C938E931497968926
:100EF000939FD0011124A454BE4FB387A2878C9135
:100F00008F5F8C93A0914C01B0914D0156968C91BE
:100F1000981708F422CF409372011FCFE0918D0102
:100F2000F0918E010580F681E02D0680F781E02D9D
:100F3000828193818816990628F490937601809394
:100F4000750154CFC285D3858481958126813781EF
:100F5000DC0115963C932E93149726813781D90195
:100F600013969C938E931297CF01029649815A81D2
:100F70004817590711F43A8329831386128628816A
:100F800021502883A489B5891097F9F026853785E3
:100F900040895189E9015D834C8340895189EA0187
:100FA0003B832A8311966D917C9112979F01245F58
:100FB0003F4F6217730721F412965C934E9311977B
:100FC000158A148A2C9121502C93A6892091E00136
:100FD0002A1710F4A093E001DA9ED0011124A45442
:100FE000BE4F11960D90BC91A02DB583A48314968D
:100FF0002D913C9115973783268314962D913C9122
:101000001597E9019B838A8315969C938E93149779
:1010100096899D9DD0011124A454BE4FB387A28709
:101020008C918F5F8C93E0914C01F0914D018689FA
:10103000981710F0BB24B394E0918D01F0918E01CC
:10104000808181116BCF1093760100937501CECE14
:10105000809170019091710101969093710180933C
:101060007001D1E0ED1AF10809F08DCE10927101F6
:101070001092700180917201882309F453CE0E946E
:10108000790581E050CE0F931F93CF93DF93EC014E
:101090008B010E94A6032091790130917A01488149
:1010A0005981CA01800F911F9983888324173507BE
:1010B00080F48417950780F0C0E00E947B068111C0
:1010C00002C00E9479058C2FDF91CF911F910F9163
:1010D00008958417950718F02817390768F760E016
:1010E000821B930B0E94E904C1E0E7CF0F920FB679
:1010F000F8940F921F9211242F923F924F925F9279
:101100006F927F928F929F92AF92BF92CF92DF9217
:10111000EF92FF920F931F932F933F934F935F9301
:101120006F937F938F939F93AF93BF93CF93DF93EF
:10113000EF93FF93A0914C01B0914D010DB60D922C
:101140000EB60D9213BE809173018111F9C080918A
:10115000790190917A01019690937A0180937901B7
:10116000009781F520918D0130918E0140918B0186
:1011700050918C0150938E0140938D0130938C01DE
:1011800020938B0120917B012F5F20937B01E091C5
:101190008D01F0918E012081211107C02FEF3FEFCB
:1011A00030937601209375010DC0E0918D01F0918F
:1011B0008E010580F681E02D20813181309376010A
:1011C0002093750120917501309176018217930764
:1011D00010F420E0A1C020E039E0D32EE0918D0191
:1011E000F0918E013081311107C08FEF9FEF909306
:1011F00076018093750190C0E0918D01F0918E0190
:101200000580F681E02D0680F781E02D4281538133
:101210008417950728F450937601409375017CC09C
:10122000A285B3854481558166817781EA017D83FA
:101230006C8366817781EB015B834A83AF014E5FEC
:101240005F4F11960D911C9112970417150721F409
:1012500012967C936E931197138612863C913150AF
:101260003C93A489B5891097F9F066857785008944
:101270001189EB011D830C8300891189E8017B83AF
:101280006A831196ED90FC901297BF01645F7F4FC7
:10129000E616F70621F412961C930E931197158A01
:1012A000148A3C9131503C93A6893091E0013A1761
:1012B00010F4A093E001DA9ED0011124A454BE4F93
:1012C00011960D90BC91A02DB583A48314966D91B9
:1012D0007C9115977783668314966D917C91159711
:1012E000EB015B834A8315965C934E931497468972
:1012F0004D9DD0011124A454BE4FB387A2873C91C9
:101300003F5F3C93E0914C01F0914D0136894317CA
:1013100008F464CF21E062CFE0914C01F0914D01DF
:10132000E689D9E0ED9FF0011124E454FE4F80815D
:10133000823008F021E08091720181110EC00AC054
:101340008091700190917101019690937101809349
:1013500070016AC0222309F467C080917301882359
:1013600021F081E0809372015FC010927201A09120
:101370004C01B0914D01E0914C01F0914D012D9146
:101380003C918789908D82179307A8F080914C013A
:1013900090914D0180914C0190914D01259A2D9A8B
:1013A0002FEF87EA91E6215080409040E1F700C09E
:1013B00000001D9AF5CF2091E00189E001C0215085
:1013C000422F50E0849FF001859FF00D1124E454DA
:1013D000FE4F9081992399F3A181B28112960D90CD
:1013E000BC91A02DB283A183289FC00111248154F8
:1013F0009E4FA817B90729F412968D919C9192835C
:10140000818389E0849FF001859FF00D1124E454CD
:10141000FE4F0180F281E02D8681978190934D01EE
:1014200080934C012093E001A0914C01B0914D01BB
:10143000CD91CDBFDD91DEBFFF91EF91DF91CF91D7
:10144000BF91AF919F918F917F916F915F914F91DC
:101450003F912F911F910F91FF90EF90DF90CF90D0
:10146000BF90AF909F908F907F906F905F904F90C4
:101470003F902F901F900F900FBE0F900895CF9325
:10148000DF93009751F0EC010E94A603CE010E9469
:10149000700FDF91CF910C947B06DF91CF9108956F
:1014A000CF93DF9300D000D01F92CDB7DEB7E0918D
:1014B0008001F09181011081F12CE12C112329F0A0
:1014C0000580F681E02DE080F1800E94A6030E9455
:1014D0009C036C018091770190917801C816D90620
:1014E00008F085C00E94CB04D0927801C0927701A9
:1014F0000E947B0600917C0110917D010FB6F8944B
:101500000F92D8015A96FC905A97FF2009F430C1E7
:101510005C964C915C97442301F150E016968D91B6
:101520009C911797840F951F17969C938E931697EF
:1015300014962D913C9115978217930738F08D9151
:101540009C91119717969C938E931697F80166813C
:101550007781CE0101960E94FF0FFA94D8015A9626
:10156000FC925A9718968C91882339F0C8010896F6
:101570000E94F70281110E9479050F900FBED98059
:10158000D7FCB8CF0C811D81D8011A968D919C9102
:10159000892B21F0C80102960E94F9030E949C0346
:1015A0007C018091770190917801E816F90610F49A
:1015B0000E94CB04F0927801E0927701EFEFED0DFD
:1015C000E93008F097CF0E2E000CFF0BE251F54FDB
:1015D000D80152968C9152970C94F90F710B710BA4
:1015E000B40B9C0BAE0B710B710BB40B9C0BD0921C
:1015F0007801C0927701112351F0CE14DF0470F00E
:101600000E947B06B601C7010E94A10473CFE0913E
:101610007E01F0917F01808161E0811160E00091A5
:101620007C0110917D010FB6F8940F92D8015D9660
:101630008C915D978F3F11F45D961C92F801868D19
:101640008F3F09F4168E0F900FBED8015A968C91D9
:101650005A9781113CC05296ED91FC91A0914C019A
:10166000B0914D011F96FC93EE931E97A0914C01F3
:10167000B0914D018481958151969C938E935097A2
:1016800080914C0190914D01A481B5810C961396E7
:101690009C938E93129780914C0190914D010C96E2
:1016A00095838483E0914C01F0914D01C8014196EE
:1016B000958B848BF80181898F5F818BC7018C1991
:1016C0009D09662311F08FEF9FEF0E94E904C80186
:1016D0000E94B7030E947B0681110CCF0E947905FE
:1016E00009CF8160F801828BCA80DB8064857585B3
:1016F0006C0D7D1D9601A701C8010E94530488232B
:1017000009F4F8CED80152968C91529782FF10C0FE
:101710001C966D917C916C0D7D1DA701C8010E94E6
:101720007D04D8015096ED91FC91C8010995E2CE57
:101730008E7FF801828BF5CF816052968C93529701
:101740006A817B811D967C936E931C976E0D7F1D25
:101750009701A701C8010E945304CCCE81FD04C0AB
:10176000C8010E943F0AC6CE8E7FF801828BC2CE8E
:101770000F900FBE9CCE0F931F93CF93DF93EC017E
:101780000FB6F8940F92892B21F4C0914C01D0919F
:101790004D018E010E5F1F4FC8010E94F9038C8915
:1017A0009D89892B21F0CE010C960E94F90380912E
:1017B000E1018F5F8093E10180914C0190914D0197
:1017C0008C179D0709F042C0E0919901F0919A01B0
:1017D000FD83EC83848195819F838E83A481B58171
:1017E00013961C930E9312971583048388E991E056
:1017F0009B878A87809198018F5F80939801809161
:1018000074018F5F809374010F900FBE80914C0123
:1018100090914D018C179D0739F08F89988D0E940A
:101820003F0ACE010E943F0A8091E201882349F0DD
:1018300080914C0190914D018C179D0711F40E94ED
:101840007905DF91CF911F910F9108958091E30168
:1018500081508093E3010E94DF02D6CF00E010E0C8
:101860008091740181110CC08091BC01823010F014
:101870000E9479050115110599F30E940000F0CF2F
:101880000FB6F8940F92E0919D01F0919E01C681F0
:10189000D781CE0102960E94F9038091E301815025
:1018A0008093E301809174018150809374010F90C3
:1018B0000FBE8F89988D0E943F0ACE010E943F0A79
:1018C000CFCFCF93DF93EC010E94A603CE010E94FD
:1018D000D40EEC010E947B06209769F4259A2D9A7C
:1018E0002FEF80E792E0215080409040E1F700C068
:1018F00000001D9AF5CFCE01DF91CF9108957F9220
:101900008F929F92AF92BF92CF92DF92EF92FF920F
:101910000F931F93CF93DF93982EE92E762E872E69
:101920006A01F22ECA010E94610C5C01892B09F444
:10193000EFC088E290E00E94610CEC01892B09F471
:10194000E4C088E2DE011D928A95E9F7B88EAF8A7D
:10195000A60165EA70E0C5010E940810B1E0CB1A4B
:10196000D108EF89F88DEC0DFD1D672D782DCE0186
:1019700049969B01285F3F4FDB014D91BD01DC0182
:101980004D93CD01AB0141505109DA014C914423F3
:1019900019F06217730781F718A2B4E0FB1202C0B6
:1019A00083E0F82EFE8AF9A21B861A861D8A1C8AFD
:1019B000D987C88784E090E08F1991099D878C872B
:1019C000DB8BCA8B9082DF011197EC9211971C92EE
:1019D000119780E88C9311971C9257971C9211973E
:1019E0001C92B397F983E883F801D183C0830FB6C3
:1019F000F8940F928091E3018F5F8093E3018091CF
:101A00004C0190914D01892B09F091C0D0934D016B
:101A1000C0934C018091E301813081F58CEB91E022
:101A20000E946B0585EC91E00E946B058EEC91E0C5
:101A30000E946B0587ED91E00E946B0583EB91E0BE
:101A40000E946B058AEA91E00E946B0581EA91E0B1
:101A50000E946B0588E991E00E946B058FE891E098
:101A60000E946B0583EB91E090938E0180938D0132
:101A70008AEA91E090938C0180938B018091E1013F
:101A80008F5F8093E101AE898091E0018A1710F4A5
:101A9000A093E00129E02A9FD0011124A454BE4F55
:101AA00011960D90BC91A02DBD83AC8314968D91A1
:101AB0009C9115979F838E831496ED91FC911597B9
:101AC000CE0102969383828315969C938E931497EE
:101AD000EE89E29FF0011124E454FE4FFB87EA8770
:101AE00080818F5F80830F900FBE8091E2018823F9
:101AF00051F0E0914C01F0914D0196898E89981733
:101B000010F40E94790581E004C0C5010E943F0ADB
:101B10008FEFDF91CF911F910F91FF90EF90DF90AA
:101B2000CF90BF90AF909F908F907F9008958091BD
:101B3000E2018111A3CFE0914C01F0914D01968912
:101B40008E89891708F49ACFD0934D01C0934C0128
:101B500095CF0F931F93CF93DF930EE611E020E014
:101B600040EC50E067E071E08EE29CE00E947F0C68
:101B7000813009F0B3C00FB6F8940F9280917C01C8
:101B800090917D01892B09F04FC083E691E00E947E
:101B90006B058AE591E00E946B0583E691E09093E6
:101BA0008101809380018AE591E090937F01809389
:101BB0007E0181E590E00E94610CEC01009781F1CB
:101BC0004F96998388838AE08B8F85E08C8F0FB640
:101BD000F8940F92888199812B8D4C8DBC01249FA4
:101BE000600D711D11247D836C831A8E9B838A8303
:101BF0002150330B429FB001439F700D1124860F7B
:101C0000971F9F838E838FEF8D8F8E8FCE010896C7
:101C10000E946B05CE0141960E946B050F900FBE8E
:101C2000D0937D01C0937C010F900FBE80917C0109
:101C300090917D01892B09F451C00CE611E023E05D
:101C400045E550E06CE071E080E59AE00E947F0C91
:101C5000813009F043C0F8942FEF3FEF30937601C5
:101C6000209375018093E20110927A01109279011C
:101C7000A89588E190EC0FB6F894A8958093600041
:101C80000FBE90936000A0914C01B0914D01CD9199
:101C9000CDBFDD91DEBFFF91EF91DF91CF91BF917D
:101CA000AF919F918F917F916F915F914F913F91F4
:101CB0002F911F910F91FF90EF90DF90CF90BF90E9
:101CC000AF909F908F907F906F905F904F903F90DC
:101CD0002F901F900F900FBE0F90089580910001DC
:101CE000DF91CF911F910F9108950E94760818956A
:101CF000789484B5826084BD84B5816084BD85B5E7
:101D0000826085BD85B5816085BD80916E008160F2
:101D100080936E0010928100809181008260809398
:101D2000810080918100816080938100809180009A
:101D30008160809380008091B10084608093B100C5
:101D40008091B00081608093B00080917A008460BF
:101D500080937A0080917A00826080937A008091EB
:101D60007A00816080937A0080917A008068809305
:101D70007A001092C10020910501309106018FEF89
:101D800098E0821B930B90930201809301010E94C3
:101D90004B020E94A90D0E944B02C0E0D0E02097A8
:101DA000F1F30E940000FBCF0F931F93CF93DF93BB
:101DB0008230910510F482E090E0E091E601F0912C
:101DC000E70130E020E0B0E0A0E0309799F4211581
:101DD000310509F44AC0281B390B24303105D8F5E8
:101DE0008A819B816115710589F1FB01938382834F
:101DF000FE0111C0408151810281138148175907AA
:101E0000E0F04817590799F4109761F012960C9377
:101E1000129713961C933296CF01DF91CF911F91A9
:101E20000F9108950093E6011093E701F4CF211577
:101E3000310551F04217530738F0A901DB019A012F
:101E4000BD01DF01F801C1CFEF01F9CF9093E701A8
:101E50008093E601CDCFFE01E20FF31F81939193B2
:101E60002250310939832883D7CF2091E401309162
:101E7000E501232B41F420910301309104013093BB
:101E8000E5012093E4012091010130910201211527
:101E9000310541F42DB73EB740910501509106013F
:101EA000241B350BE091E401F091E501E217F30703
:101EB000A0F42E1B3F0B2817390778F0AC014E5FBA
:101EC0005F4F2417350748F04E0F5F1F5093E50111
:101ED0004093E401819391939FCFF0E0E0E09CCFA9
:101EE000CF93DF930097E9F0FC01329713821282BF
:101EF000A091E601B091E701ED0130E020E01097FC
:101F0000A1F420813181820F931F2091E40130914F
:101F1000E5012817390709F061C0F093E501E09366
:101F2000E401DF91CF910895EA01CE17DF07E8F5CC
:101F30004A815B819E0141155105B1F7E901FB839F
:101F4000EA8349915991C40FD51FEC17FD0761F43D
:101F5000808191810296840F951FE901998388837E
:101F6000828193819B838A83F0E0E0E012968D91D9
:101F70009C9113970097B9F52D913C911197CD0144
:101F80000296820F931F2091E4013091E5012817FA
:101F9000390739F6309751F51092E7011092E601B2
:101FA000B093E501A093E401BCCFD383C283408109
:101FB0005181840F951FC817D90761F44E5F5F4F99
:101FC00088819981480F591F518340838A819B8161
:101FD000938382832115310509F0B0CFF093E70197
:101FE000E093E6019ECFFD01DC01C0CF1382128297
:101FF000D7CFEE0FFF1F0590F491E02D0994FB0160
:10200000DC0102C001900D9241505040D8F7089574
:10201000DC0101C06D9341505040E0F70895F89401
:10202000FFCF030000E801800049444C4500546D97
:102030007220537663004C45445F677265656E5F3E
:102040007461736B004C45445F7265645F746173C7
:102050006B004C45445F79656C6C6F775F7461739E
:0E2060006B00427574746F6E5F7461736B0079
:107E0000112484B714BE81FFF0D085E080938100F7
:107E100082E08093C00088E18093C10086E0809377
:107E2000C20080E18093C4008EE0C9D0259A86E02C
:107E300020E33CEF91E0309385002093840096BBD3
:107E4000B09BFECF1D9AA8958150A9F7CC24DD24C4
:107E500088248394B5E0AB2EA1E19A2EF3E0BF2EE7
:107E6000A2D0813461F49FD0082FAFD0023811F036
:107E7000013811F484E001C083E08DD089C08234E0
:107E800011F484E103C0853419F485E0A6D080C0E4
:107E9000853579F488D0E82EFF2485D0082F10E0AE
:107EA000102F00270E291F29000F111F8ED06801E7
:107EB0006FC0863521F484E090D080E0DECF843638
:107EC00009F040C070D06FD0082F6DD080E0C81688
:107ED00080E7D80618F4F601B7BEE895C0E0D1E017
:107EE00062D089930C17E1F7F0E0CF16F0E7DF06D8
:107EF00018F0F601B7BEE89568D007B600FCFDCFD4
:107F0000A601A0E0B1E02C9130E011968C91119780
:107F100090E0982F8827822B932B1296FA010C0160
:107F200087BEE89511244E5F5F4FF1E0A038BF0790
:107F300051F7F601A7BEE89507B600FCFDCF97BE46
:107F4000E89526C08437B1F42ED02DD0F82E2BD052
:107F50003CD0F601EF2C8F010F5F1F4F84911BD097
:107F6000EA94F801C1F70894C11CD11CFA94CF0C13
:107F7000D11C0EC0853739F428D08EE10CD085E9AC
:107F80000AD08FE07ACF813511F488E018D01DD067
:107F900080E101D065CF982F8091C00085FFFCCF94
:107FA0009093C60008958091C00087FFFCCF809118
:107FB000C00084FD01C0A8958091C6000895E0E648
:107FC000F0E098E1908380830895EDDF803219F02E
:107FD00088E0F5DFFFCF84E1DECF1F93182FE3DFCA
:107FE0001150E9F7F2DF1F91089580E0E8DFEE27F6
:047FF000FF270994CA
:027FFE00040479
:00000001FF
