:020000040000FA
:100000000C945C000C9479000C9479000C947900A9
:100010000C9479000C9479000C94A50C0C94790044
:100020000C9479000C9479000C9479000C9479006C
:100030000C9479000C9479000C9479000C9479005C
:100040000C9481010C9479000C9479000C94790043
:100050000C9479000C9479000C9479000C9479003C
:100060000C9479000C947900000000080002010053
:100070000003040700000000000000000000000072
:10008000250028002B0000000000240027002A0083
:10009000040404040404040402020202020203032E
:1000A0000303030301020408102040800102040836
:1000B000102001020408102011241FBECFEFD8E049
:1000C000DEBFCDBF11E0A0E0B1E0E2E8FCE102C09C
:1000D00005900D92A034B107D9F721E0A0E4B1E07A
:1000E00001C01D92A23DB207E1F70E94A80C0C943A
:1000F0003F0E0C94000090E0FC01EC55FF4F249162
:1001000080579F4FFC018491882399F090E0880FDD
:10011000991FFC01EA57FF4FA591B491FC01E458E7
:10012000FF4F859194918FB7F894EC91E22BEC936B
:100130008FBF089590E0FC01E859FF4F2491FC0126
:10014000EC55FF4F3491FC01E057FF4FE491EE2353
:10015000C9F0222339F0233001F1A8F4213019F13C
:10016000223029F1F0E0EE0FFF1FE458FF4FA59178
:10017000B4918FB7F894EC91611126C030953E236D
:100180003C938FBF08952730A9F02830C9F0243060
:1001900049F7809180008F7D03C0809180008F7728
:1001A00080938000DFCF84B58F7784BDDBCF84B5AB
:1001B0008F7DFBCF8091B0008F778093B000D2CF3E
:1001C0008091B0008F7DF9CF3E2BDACFCF93DF93B4
:1001D00000D0CDB7DEB70E9488029A83898361E0A0
:1001E00087E00E949A0068E170E0CE0101960E94CB
:1001F000EB0660E087E00E949A0068E170E0CE01C3
:1002000001960E94EB06EBCFCF93DF9300D0CDB7E2
:10021000DEB70E9488029A83898361E083E00E94AE
:100220009A0061E370E0CE0101960E94EB0660E067
:1002300083E00E949A0061E370E0CE0101960E9483
:10024000EB06EBCFCF93DF9300D0CDB7DEB70E94A4
:1002500088029A83898361E082E00E949A006EE3BB
:1002600070E0CE0101960E94EB0660E082E00E9401
:100270009A006EE370E0CE0101960E94EB06EBCF90
:100280000F931F93CF93DF9300D000D000D0CDB752
:10029000DEB782E00E947B0083E00E947B0087E063
:1002A0000E947B008E010F5F1F4F22E048EC50E060
:1002B00064E171E082E291E00E94B40A0E5F1F4F98
:1002C00022E048EC50E063E271E084E091E00E94BB
:1002D000B40A0E5F1F4F22E048EC50E060E371E08B
:1002E00086EE90E00E94B40A0E94D90B26960FB6C3
:1002F000F894DEBF0FBECDBFDF91CF911F910F915C
:1003000008951F920F920FB60F9211242F933F93CF
:100310008F939F93AF93BF938091710190917201DE
:10032000A0917301B09174013091700123E0230F0B
:100330002D3758F50196A11DB11D209370018093B2
:10034000710190937201A0937301B0937401809135
:100350006C0190916D01A0916E01B0916F010196B9
:10036000A11DB11D80936C0190936D01A0936E014E
:10037000B0936F01BF91AF919F918F913F912F915A
:100380000F900FBE0F901F90189526E8230F02962E
:10039000A11DB11DD2CFE0917701F091780180814C
:1003A000811107C08FEF9FEF9093600180935F01F1
:1003B0000895E0917701F09178010580F681E02DB4
:1003C00080819181F1CFCF93DF93DC011596ED9180
:1003D000FC910680F781E02DA489B58986859785F3
:1003E00020893189EC013D832C83C089D1899B838D
:1003F0008A83CF010C9611962D913C911297281764
:10040000390721F41296DC93CE931197158A148A3A
:100410002C9121502C9320915D01211157C0A28570
:10042000B3858481958126813781EC013D832C83BE
:10043000C681D7819B838A83CF01029611962D9125
:100440003C9112972817390721F41296DC93CE932A
:100450001197138612862C9121502C93C6892091D6
:10046000CA012C1710F4C093CA0129E02C9FE001A7
:100470001124CA55DE4F0980DA81C02DD583C4838B
:100480004C815D8157834683AC81BD8113969C93DB
:100490008E9312979D838C83A689A29FD0011124ED
:1004A000AA55BE4FB387A2878C918F5F8C93A09182
:1004B0004001B0914101968956968C91891730F58B
:1004C00081E080935C01DF91CF910895A0918C0130
:1004D000B0918D01B787A68714962D913C91159701
:1004E000318B208B1496CD91DC9115979B838A8359
:1004F00015969C938E9314978BE891E0958B848B43
:1005000080918B018F5F80938B01D1CF80E0DBCF17
:100510000FB6F8940F9280916301909164010F904F
:100520000FBE089580915D018F5F80935D010895F6
:100530000FB6F8940F92FC01928D0F900FBE81E0E0
:10054000911180E00895EF92FF920F931F93CF9344
:10055000DF93EC010FB6F8940F921E8D7C0181E1C0
:10056000E80EF11C01E01116D4F08FEF8E8F0F9082
:100570000FBE0FB6F8940F921D8D7E0188E0E80E35
:10058000F11C01E01116B4F08FEF8D8F0F900FBEAC
:10059000DF91CF911F910F91FF90EF90089589897E
:1005A000882319F3C7010E94E301811100935C01C4
:1005B0001150D9CF8885882339F3C7010E94E30100
:1005C000811100935C011150DDCFCF93DF93FC01CB
:1005D000A085B1858281938124813581EC013D83A1
:1005E0002C83C481D5819B838A8311968D919C91A4
:1005F00012978E179F0721F41296DC93CE931197D2
:10060000118610868C9181508C938C91DF91CF91C3
:1006100008950F931F93CF93DF938C01FB0180818B
:100620009181D80113968F3F9807F1F4E801AF81CB
:10063000B88512968D919C91139793838283EC01D8
:10064000FD83EC83B583A4831396FC93EE931297FA
:1006500011870087F80180818F5F8083DF91CF91C0
:100660001F910F910895D90112962D913C911397E6
:10067000E9014881598184179507A8F7DACFFC0171
:1006800073836283918780874617570790F0421BD8
:10069000530B8485958548175907C8F4BF016E5FD1
:1006A0007F4F80916801909169010E94090380E069
:1006B00008954217530718F46217730740F4BF01F7
:1006C0006E5F7F4F80916A0190916B01EECF81E068
:1006D0000895EF92FF920F931F93CF93DF93EC0156
:1006E0008B017A016C857D85600F711F9801A701D0
:1006F000CE010E943F03811107C0DF91CF911F916E
:100700000F91FF90EF9008958C859D85080F191F1C
:10071000E889F989CE010995E5CFEF92FF920F9311
:100720001F93CF93DF938C017B01E0916A01F091DD
:100730006B010580F681E02DC681D781CE0102963E
:100740000E94E5028A8982FF0FC0A701B801CE018D
:100750000E946903E889F989CE01DF91CF911F9149
:100760000F91FF90EF9009948E7F8A8BF3CFE091E9
:100770006A01F0916B01808181110DC08091680147
:100780009091690190936B0180936A01F0936901E4
:10079000E093680108950580F681E02D6FEF7FEF0B
:1007A000808191810E948D03E2CFFF920F931F936E
:1007B000CF93DF93EC01F62E009163011091640159
:1007C000809140019091410102960E94E502CF3F45
:1007D000DC07E9F5FF20D9F1E0917A01F0917B0186
:1007E000A0914001B09141011596FC93EE931497AE
:1007F000A0914001B09141018481958117969C930D
:100800008E9316978091400190914101A481B5810A
:10081000029613969C938E9312978091400190912B
:100820004101029695838483E0914001F09141015A
:1008300089E791E093878287809179018F5F809328
:100840007901DF91CF911F910F91FF900895C00F13
:10085000D11FE0914001F0914101D383C2836091A7
:10086000400170914101C017D10768F48091750172
:10087000909176016E5F7F4FDF91CF911F910F9125
:10088000FF900C94090380917701909178016E5F3D
:100890007F4F0E94090380915F0190916001C8170A
:1008A000D90778F6D0936001C0935F01CACFFC01ED
:1008B0000396928381832FEF3FEF348323839683C4
:1008C000858390878783108208950F920FB6F894DE
:1008D0000F921F9211242F923F924F925F926F922C
:1008E0007F928F929F92AF92BF92CF92DF92EF92C0
:1008F000FF920F931F932F933F934F935F936F93A9
:100900007F938F939F93AF93BF93CF93DF93EF9397
:10091000FF93A0914001B09141010DB60D920EB62A
:100920000D9280915D01882321F081E080935C012C
:100930005FC010925C01A0914001B0914101E09133
:100940004001F09141012D913C918789908D821752
:100950009307A8F08091400190914101809140015E
:1009600090914101259A2D9A2FEF87EA91E6215027
:1009700080409040E1F700C000001D9AF5CF209123
:10098000CA0189E001C02150422F50E0849FF0014C
:10099000859FF00D1124EA55FE4F9081992399F31C
:1009A000A181B28112960D90BC91A02DB283A1833A
:1009B000289FC001112487559E4FA817B90729F415
:1009C00012968D919C919283818389E0849FF0019E
:1009D000859FF00D1124EA55FE4F0180F281E02D34
:1009E0008681978190934101809340012093CA01B1
:1009F000A0914001B0914101CD91CDBFDD91DEBF0D
:100A0000FF91EF91DF91CF91BF91AF919F918F9126
:100A10007F916F915F914F913F912F911F910F9116
:100A2000FF90EF90DF90CF90BF90AF909F908F900E
:100A30007F906F905F904F903F902F901F900F90FE
:100A40000FBE0F9008958F929F92BF92CF92DF9228
:100A5000EF92FF920F931F93CF93DF930FB6F8940B
:100A60000F9280915D01815080935D0180915D01C5
:100A7000882379F080E00F900FBEDF91CF911F9116
:100A80000F91FF90EF90DF90CF90BF909F908F904D
:100A900008958091CD01882369F3E0909001F09052
:100AA0009101F0E0E0E039E041E080918B018111BB
:100AB0005EC0EF2B11F00E94CB01E0905A01F09044
:100AC0005B01E114F10409F47DC189E0D82ECC2446
:100AD000C3940FEF1FEF80915D01811161C1C0913F
:100AE0006301D09164014E018FEF881A980A9092A9
:100AF00064018092630181149104B9F480917701BB
:100B000090917801209175013091760130937801B0
:100B10002093770190937601809375018091650110
:100B20008F5F809365010E94CB0180915F0190915E
:100B30006001B12C8816990608F026C1E0914001A9
:100B4000F0914101E689DE9EF0011124EA55FE4F45
:100B50008081823010F0BB24B39480915C018111BC
:100B600003C0BB2009F425C1C0925C0122C1D7019A
:100B70001696ED91FC91A489B58966857785808963
:100B80009189EB019D838C8380899189EC017B8322
:100B90006A83BF01645F7F4F11960D911C9112977C
:100BA0000617170721F412969C938E931197158AB6
:100BB000148A8C9181508C93A285B3858481958110
:100BC00066817781EC017D836C8366817781EB019F
:100BD0009B838A83CF01029611960D911C911297E7
:100BE0000817190721F412967C936E9311971386B8
:100BF00012862C9121502C93A6892091CA012A1784
:100C000010F4A093CA013A9FD0011124AA55BE4FF7
:100C100011960D90BC91A02DB583A48314966D916F
:100C20007C9115977783668314966D917C911597C7
:100C3000EB019B838A8315969C938E9314979689D8
:100C4000939FD0011124AA55BE4FB387A2878C91E0
:100C50008F5F8C93A0914001B091410156968C9189
:100C6000981708F422CF40935C011FCFE0917701E1
:100C7000F09178010580F681E02D0680F781E02D66
:100C8000828193818816990628F49093600180935D
:100C90005F0154CFC285D3858481958126813781B8
:100CA000DC0115963C932E93149726813781D90148
:100CB00013969C938E931297CF01029649815A8185
:100CC0004817590711F43A8329831386128628811D
:100CD00021502883A489B5891097F9F02685378596
:100CE00040895189E9015D834C8340895189EA013A
:100CF0003B832A8311966D917C9112979F01245F0B
:100D00003F4F6217730721F412965C934E9311972D
:100D1000158A148A2C9121502C93A6892091CA01FE
:100D20002A1710F4A093CA01DA9ED0011124AA5503
:100D3000BE4F11960D90BC91A02DB583A48314963F
:100D40002D913C9115973783268314962D913C91D4
:100D50001597E9019B838A8315969C938E9314972C
:100D600096899D9DD0011124AA55BE4FB387A287B5
:100D70008C918F5F8C93E0914001F09141018689C5
:100D8000981710F0BB24B394E0917701F0917801AB
:100D9000808181116BCF1093600100935F01CECEF3
:100DA00080915A0190915B01019690935B01809331
:100DB0005A01D1E0ED1AF10809F08DCE10925B01D5
:100DC00010925A0180915C01882309F453CE0E944D
:100DD000650481E050CE0F931F93CF93DF93EC0116
:100DE0008B010E949202209163013091640148813D
:100DF0005981CA01800F911F998388832417350771
:100E000080F48417950780F0C0E00E9423058111CB
:100E100002C00E9465048C2FDF91CF911F910F912A
:100E200008958417950718F02817390768F760E0C8
:100E3000821B930B0E94D503C1E0E7CF0F920FB640
:100E4000F8940F921F9211242F923F924F925F922B
:100E50006F927F928F929F92AF92BF92CF92DF92CA
:100E6000EF92FF920F931F932F933F934F935F93B4
:100E70006F937F938F939F93AF93BF93CF93DF93A2
:100E8000EF93FF93A0914001B09141010DB60D92F7
:100E90000EB60D9213BE80915D018111F9C0809153
:100EA00063019091640101969093640180936301C2
:100EB000009781F52091770130917801409175017B
:100EC00050917601509378014093770130937601E9
:100ED00020937501209165012F5F20936501E091BA
:100EE0007701F09178012081211107C02FEF3FEFAA
:100EF0003093600120935F010DC0E0917701F09184
:100F000078010580F681E02D2081318130936001E8
:100F100020935F0120915F01309160018217930758
:100F200010F420E0A1C020E039E0D32EE091770159
:100F3000F09178013081311107C08FEF9FEF9093CE
:100F4000600180935F0190C0E0917701F09178019A
:100F50000580F681E02D0680F781E02D42815381E6
:100F60008417950728F45093600140935F017CC07B
:100F7000A285B3854481558166817781EA017D83AD
:100F80006C8366817781EB015B834A83AF014E5F9F
:100F90005F4F11960D911C9112970417150721F4BC
:100FA00012967C936E931197138612863C91315062
:100FB0003C93A489B5891097F9F0668577850089F7
:100FC0001189EB011D830C8300891189E8017B8362
:100FD0006A831196ED90FC901297BF01645F7F4F7A
:100FE000E616F70621F412961C930E931197158AB4
:100FF000148A3C9131503C93A6893091CA013A172A
:1010000010F4A093CA01DA9ED0011124AA55BE4F54
:1010100011960D90BC91A02DB583A48314966D916B
:101020007C9115977783668314966D917C911597C3
:10103000EB015B834A8315965C934E931497468924
:101040004D9DD0011124AA55BE4FB387A2873C9174
:101050003F5F3C93E0914001F09141013689431795
:1010600008F464CF21E062CFE0914001F0914101AA
:10107000E689D9E0ED9FF0011124EA55FE4F808109
:10108000823008F021E080915C0181110EC00AC01D
:1010900080915A0190915B01019690935B0180933E
:1010A0005A016AC0222309F467C080915D01882338
:1010B00021F081E080935C015FC010925C01A091FF
:1010C0004001B0914101E0914001F09141012D9129
:1010D0003C918789908D82179307A8F080914001F9
:1010E000909141018091400190914101259A2D9A62
:1010F0002FEF87EA91E6215080409040E1F700C051
:1011000000001D9AF5CF2091CA0189E001C021504D
:10111000422F50E0849FF001859FF00D1124EA5585
:10112000FE4F9081992399F3A181B28112960D907F
:10113000BC91A02DB283A183289FC00111248755A3
:101140009E4FA817B90729F412968D919C9192830E
:10115000818389E0849FF001859FF00D1124EA5579
:10116000FE4F0180F281E02D8681978190934101AD
:10117000809340012093CA01A0914001B0914101A8
:10118000CD91CDBFDD91DEBFFF91EF91DF91CF918A
:10119000BF91AF919F918F917F916F915F914F918F
:1011A0003F912F911F910F91FF90EF90DF90CF9083
:1011B000BF90AF909F908F907F906F905F904F9077
:1011C0003F902F901F900F900FBE0F900895CF93D8
:1011D000DF93009751F0EC010E949202CE010E9431
:1011E000A00DDF91CF910C942305DF91CF9108954D
:1011F000CF93DF9300D000D01F92CDB7DEB7E09140
:101200006A01F0916B011081F12CE12C112329F07E
:101210000580F681E02DE080F1800E9492020E941C
:1012200088026C018091610190916201C816D90613
:1012300008F085C00E94B703D0926201C09261019C
:101240000E94230500916601109167010FB6F89482
:101250000F92D8015A96FC905A97FF2009F430C19A
:101260005C964C915C97442301F150E016968D9169
:101270009C911797840F951F17969C938E931697A2
:1012800014962D913C9115978217930738F08D9104
:101290009C91119717969C938E931697F8016681EF
:1012A0007781CE0101960E942F0EFA94D8015A96AA
:1012B000FC925A9718968C91882339F0C8010896A9
:1012C0000E94E30181110E9465040F900FBED98036
:1012D000D7FCB8CF0C811D81D8011A968D919C91B5
:1012E000892B21F0C80102960E94E5020E94880223
:1012F0007C018091610190916201E816F90610F479
:101300000E94B703F0926201E0926101EFEFED0DF0
:10131000E93008F097CF0E2E000CFF0BEA56F64F7F
:10132000D80152968C9152970C94290E190A190AD9
:101330005C0A440A560A190A190A5C0A440AD0923D
:101340006201C0926101112351F0CE14DF0470F0EC
:101350000E942305B601C7010E948D0373CFE0915F
:101360006801F0916901808161E0811160E0009184
:101370006601109167010FB6F8940F92D8015D963F
:101380008C915D978F3F11F45D961C92F801868DCC
:101390008F3F09F4168E0F900FBED8015A968C918C
:1013A0005A9781113CC05296ED91FC91A091400159
:1013B000B09141011F96FC93EE931E97A0914001BE
:1013C000B09141018481958151969C938E93509761
:1013D0008091400190914101A481B5810C961396B2
:1013E0009C938E93129780914001909141010C96AD
:1013F00095838483E0914001F0914101C8014196B9
:10140000958B848BF80181898F5F818BC7018C1943
:101410009D09662311F08FEF9FEF0E94D503C8014D
:101420000E94A3020E94230581110CCF0E94650433
:1014300009CF8160F801828BCA80DB806485758565
:101440006C0D7D1D9601A701C8010E943F038823F2
:1014500009F4F8CED80152968C91529782FF10C0B1
:101460001C966D917C916C0D7D1DA701C8010E9499
:101470006903D8015096ED91FC91C8010995E2CE1F
:101480008E7FF801828BF5CF816052968C935297B4
:101490006A817B811D967C936E931C976E0D7F1DD8
:1014A0009701A701C8010E943F03CCCE81FD04C073
:1014B000C8010E94E708C6CE8E7FF801828BC2CE9B
:1014C0000F900FBE9CCE00E010E080915E01811174
:1014D0000CC08091A601823010F00E9465040115B5
:1014E000110599F30E940000F0CF0FB6F8940F9207
:1014F000E0918701F0918801C681D781CE010296E3
:101500000E94E5028091CD0181508093CD018091B0
:101510005E01815080935E010F900FBE8F89988D80
:101520000E94E708CE010E94E708CFCFCF93DF9358
:10153000EC010E949202CE010E94040DEC010E9477
:101540002305209769F4259A2D9A2FEF80E792E0E2
:10155000215080409040E1F700C000001D9AF5CF77
:10156000CE01DF91CF9108957F928F929F92AF929B
:10157000BF92CF92DF92EF92FF920F931F93CF9380
:10158000DF93982EA92E762E872E7A01B22ECA01CD
:101590000E94960A6C01892B09F4EAC088E290E067
:1015A0000E94960AEC01892B09F4DFC088E2DE0173
:1015B0001D928A95E9F7D88ECF8AA70165EA70E077
:1015C000C6010E94380EB1E0EB1AF108EF89F88DE0
:1015D000EE0DFF1D672D782DCE0149969B01285FEA
:1015E0003F4FDB014D91BD01DC014D93CD01AB01BE
:1015F00041505109DA014C91442319F062177307E5
:1016000081F718A2BE8AB9A21B861A861D8A1C8A77
:10161000D987C88784E090E08B1991099D878C87D2
:10162000DB8BCA8B9082DF011197AC9211971C92D1
:10163000119780E88C9311971C9257971C921197E1
:101640001C92B397F983E883F801D183C0830FB666
:10165000F8940F928091CD018F5F8093CD0180919E
:10166000400190914101892B09F091C0D093410133
:10167000C09340018091CD01813081F586EA91E0EF
:101680000E9457048FEA91E00E94570488EB91E092
:101690000E94570481EC91E00E9457048DE991E08B
:1016A0000E94570484E991E00E9457048BE891E07E
:1016B0000E94570482E891E00E94570489E791E074
:1016C0000E9457048DE991E090937801809377010F
:1016D00084E991E090937601809375018091CB012C
:1016E0008F5F8093CB01AE898091CA018A1710F475
:1016F000A093CA0129E02A9FD0011124AA55BE4F08
:1017000011960D90BC91A02DBD83AC8314968D9144
:101710009C9115979F838E831496ED91FC9115975C
:10172000CE0102969383828315969C938E93149791
:10173000EE89E29FF0011124EA55FE4FFB87EA870C
:1017400080818F5F80830F900FBE8091CC018823B2
:1017500051F0E0914001F091410196898E899817EE
:1017600010F40E94650481E004C0C6010E94E708ED
:101770008FEFDF91CF911F910F91FF90EF90DF904E
:10178000CF90BF90AF909F908F907F900895809161
:10179000CC018111A3CFE0914001F09141019689E4
:1017A0008E89891708F49ACFD0934101C0934001E4
:1017B00095CF0F931F93CF93DF9308E511E020E0BF
:1017C00040EC50E067E071E083E69AE00E94B40AE2
:1017D000813009F0B3C00FB6F8940F928091660182
:1017E00090916701892B09F04FC08DE491E00E9430
:1017F000570484E491E00E9457048DE491E09093B3
:101800006B0180936A0184E491E090936901809375
:10181000680181E590E00E94960AEC01009781F151
:101820004F96998388838AE08B8F85E08C8F0FB6E3
:10183000F8940F92888199812B8D4C8DBC01249F47
:10184000600D711D11247D836C831A8E9B838A83A6
:101850002150330B429FB001439F700D1124860F1E
:10186000971F9F838E838FEF8D8F8E8FCE0108966B
:101870000E945704CE0141960E9457040F900FBE5C
:10188000D0936701C09366010F900FBE80916601EF
:1018900090916701892B09F451C006E511E023E01E
:1018A00045E550E06CE071E088EF98E00E94B40AF2
:1018B000813009F043C0F8942FEF3FEF309360017F
:1018C00020935F018093CC01109264011092630118
:1018D000A89588E190EC0FB6F894A89580936000E5
:1018E0000FBE90936000A0914001B0914101CD9155
:1018F000CDBFDD91DEBFFF91EF91DF91CF91BF9121
:10190000AF919F918F917F916F915F914F913F9197
:101910002F911F910F91FF90EF90DF90CF90BF908C
:10192000AF909F908F907F906F905F904F903F907F
:101930002F901F900F900FBE0F900895809100017F
:10194000DF91CF911F910F9108950E941E07189566
:10195000789484B5826084BD84B5816084BD85B58A
:10196000826085BD85B5816085BD80916E00816096
:1019700080936E001092810080918100826080933C
:10198000810080918100816080938100809180003E
:101990008160809380008091B10084608093B10069
:1019A0008091B00081608093B00080917A00846063
:1019B00080937A0080917A00826080937A0080918F
:1019C0007A00816080937A0080917A0080688093A9
:1019D0007A001092C10020910501309106018FEF2D
:1019E00098E0821B930B90930201809301010E9467
:1019F00040010E94D90B0E944001C0E0D0E0209736
:101A0000F1F30E940000FBCF0F931F93CF93DF935E
:101A10008230910510F482E090E0E091D001F091E5
:101A2000D10130E020E0B0E0A0E0309799F421153A
:101A3000310509F44AC0281B390B24303105D8F58B
:101A40008A819B816115710589F1FB0193838283F2
:101A5000FE0111C04081518102811381481759074D
:101A6000E0F04817590799F4109761F012960C931B
:101A7000129713961C933296CF01DF91CF911F914D
:101A80000F9108950093D0011093D101F4CF211547
:101A9000310551F04217530738F0A901DB019A01D3
:101AA000BD01DF01F801C1CFEF01F9CF9093D10162
:101AB0008093D001CDCFFE01E20FF31F819391936C
:101AC0002250310939832883D7CF2091CE0130911C
:101AD000CF01232B41F42091030130910401309375
:101AE000CF012093CE0120910101309102012115F7
:101AF000310541F42DB73EB74091050150910601E3
:101B0000241B350BE091CE01F091CF01E217F307D2
:101B1000A0F42E1B3F0B2817390778F0AC014E5F5D
:101B20005F4F2417350748F04E0F5F1F5093CF01CA
:101B30004093CE01819391939FCFF0E0E0E09CCF62
:101B4000CF93DF930097E9F0FC0132971382128262
:101B5000A091D001B091D101ED0130E020E01097CB
:101B6000A1F420813181820F931F2091CE01309109
:101B7000CF012817390709F061C0F093CF01E09336
:101B8000CE01DF91CF910895EA01CE17DF07E8F586
:101B90004A815B819E0141155105B1F7E901FB8343
:101BA000EA8349915991C40FD51FEC17FD0761F4E1
:101BB000808191810296840F951FE9019983888322
:101BC000828193819B838A83F0E0E0E012968D917D
:101BD0009C9113970097B9F52D913C911197CD01E8
:101BE0000296820F931F2091CE013091CF012817CA
:101BF000390739F6309751F51092D1011092D00182
:101C0000B093CF01A093CE01BCCFD383C2834081D8
:101C10005181840F951FC817D90761F44E5F5F4F3C
:101C200088819981480F591F518340838A819B8104
:101C3000938382832115310509F0B0CFF093D10150
:101C4000E093D0019ECFFD01DC01C0CF1382128250
:101C5000D7CFEE0FFF1F0590F491E02D0994FB0103
:101C6000DC0102C001900D9241505040D8F7089518
:101C7000DC0101C06D9341505040E0F70895F894A5
:101C8000FFCF030000D201800049444C4500546D51
:101C90007220537663004C45445F677265656E5FE2
:101CA0007461736B004C45445F7265645F7461736B
:101CB0006B004C45445F79656C6C6F775F74617342
:021CC0006B00B7
:107E0000112484B714BE81FFF0D085E080938100F7
:107E100082E08093C00088E18093C10086E0809377
:107E2000C20080E18093C4008EE0C9D0259A86E02C
:107E300020E33CEF91E0309385002093840096BBD3
:107E4000B09BFECF1D9AA8958150A9F7CC24DD24C4
:107E500088248394B5E0AB2EA1E19A2EF3E0BF2EE7
:107E6000A2D0813461F49FD0082FAFD0023811F036
:107E7000013811F484E001C083E08DD089C08234E0
:107E800011F484E103C0853419F485E0A6D080C0E4
:107E9000853579F488D0E82EFF2485D0082F10E0AE
:107EA000102F00270E291F29000F111F8ED06801E7
:107EB0006FC0863521F484E090D080E0DECF843638
:107EC00009F040C070D06FD0082F6DD080E0C81688
:107ED00080E7D80618F4F601B7BEE895C0E0D1E017
:107EE00062D089930C17E1F7F0E0CF16F0E7DF06D8
:107EF00018F0F601B7BEE89568D007B600FCFDCFD4
:107F0000A601A0E0B1E02C9130E011968C91119780
:107F100090E0982F8827822B932B1296FA010C0160
:107F200087BEE89511244E5F5F4FF1E0A038BF0790
:107F300051F7F601A7BEE89507B600FCFDCF97BE46
:107F4000E89526C08437B1F42ED02DD0F82E2BD052
:107F50003CD0F601EF2C8F010F5F1F4F84911BD097
:107F6000EA94F801C1F70894C11CD11CFA94CF0C13
:107F7000D11C0EC0853739F428D08EE10CD085E9AC
:107F80000AD08FE07ACF813511F488E018D01DD067
:107F900080E101D065CF982F8091C00085FFFCCF94
:107FA0009093C60008958091C00087FFFCCF809118
:107FB000C00084FD01C0A8958091C6000895E0E648
:107FC000F0E098E1908380830895EDDF803219F02E
:107FD00088E0F5DFFFCF84E1DECF1F93182FE3DFCA
:107FE0001150E9F7F2DF1F91089580E0E8DFEE27F6
:047FF000FF270994CA
:027FFE00040479
:00000001FF
