:020000040000FA
:100000000C945D000C9485000C9485000C94850084
:100010000C9485000C9485000C949E0F0C94850024
:100020000C9485000C9485000C9485000C9485003C
:100030000C9485000C9485000C9485000C9485002C
:100040000C9485040C9485000C9453040C942D049A
:100050000C9485000C9485000C9485000C9485000C
:100060000C9485000C9485000000000024002700FB
:100070002A0000000000250028002B0004040404CE
:100080000404040402020202020203030303030342
:10009000010204081020408001020408102001021F
:1000A00004081020000000080002010000030407FB
:1000B0000000000000000000971011241FBECFEFC9
:1000C000D8E0DEBFCDBF11E0A0E0B1E0E6E4F4E2AD
:1000D00002C005900D92A234B107D9F722E0A2E444
:1000E000B1E001C01D92A337B207E1F710E0CDE502
:1000F000D0E004C02197FE010E940B12CC35D1073D
:10010000C9F70E94A10F0C9421120C940000E1EB9E
:10011000F0E02491EDE9F0E09491E9E8F0E0E49179
:10012000EE23C9F0222339F0233001F1A8F4213065
:1001300019F1223029F1F0E0EE0FFF1FEE58FF4FCA
:10014000A591B4912FB7F894EC91811126C09095A8
:100150009E239C932FBF08952730A9F02830C9F023
:10016000243049F7209180002F7D03C0209180002A
:100170002F7720938000DFCF24B52F7724BDDBCFEE
:1001800024B52F7DFBCF2091B0002F772093B000B6
:10019000D2CF2091B0002F7DF9CF9E2BDACFAF9236
:1001A000BF92CF92DF92EF92FF920F931F93CF9364
:1001B000DF936C017B018B01040F151FEB015E01C6
:1001C000AE18BF08C017D10759F06991D601ED915B
:1001D000FC910190F081E02DC6010995892B79F7FA
:1001E000C501DF91CF911F910F91FF90EF90DF90AC
:1001F000CF90BF90AF900895FC01538D448D252F73
:1002000030E0842F90E0821B930B541710F0CF96B0
:10021000089501970895FC01918D828D981761F0E2
:10022000A28DAE0FBF2FB11D5D968C91928D9F5FF9
:100230009F73928F90E008958FEF9FEF0895FC01D8
:10024000918D828D981731F0828DE80FF11D858D8B
:1002500090E008958FEF9FEF0895FC01918D228D1E
:10026000892F90E0805C9F4F821B91098F739927A3
:10027000089589E591E00E942D0121E0892B09F480
:1002800020E0822F08950E94390181110C94000012
:10029000089580E090E0892B11F00C9443010895BB
:1002A000FC01A48DA80FB92FB11DA35ABF4F2C91EB
:1002B000848D90E001968F739927848FA689B789E2
:1002C0002C93A089B1898C91837080648C93938DD9
:1002D000848D981306C00288F389E02D80818F7D7C
:1002E00080830895EF92FF920F931F93CF93DF9334
:1002F000EC0181E0888F9B8D8C8D98131AC0E88962
:10030000F989808185FF15C09FB7F894EE89FF8930
:100310006083E889F98980818370806480839FBFCE
:1003200081E090E0DF91CF911F910F91FF90EF90CE
:100330000895F62E0B8D10E00F5F1F4F0F731127DE
:10034000E02E8C8D8E110CC00FB607FCFACFE88919
:10035000F989808185FFF5CFCE010E945001F1CF50
:10036000EB8DEC0FFD2FF11DE35AFF4FF0829FB78D
:10037000F8940B8FEA89FB8980818062CFCFCF937D
:10038000DF93EC01888D8823B9F0AA89BB89E889BD
:10039000F9898C9185FD03C0808186FD0DC00FB663
:1003A00007FCF7CF8C9185FFF2CF808185FFEDCFE1
:1003B000CE010E945001E9CFDF91CF910895EDE980
:1003C000F0E02491E9E8F0E08491882399F090E04E
:1003D000880F991FFC01E859FF4FA591B491FC01CA
:1003E000EE58FF4F859194918FB7F894EC91E22BE2
:1003F000EC938FBF81E00E9487008FE090E00E9425
:10040000520A80E00E9487008FE090E00E94520A2A
:10041000F1CFCF93DF9300D000D000D01F92CDB7A3
:10042000DEB780E4682EAA24AA94BA2C24E0822E97
:10043000912C39E0732E60927C0080917A00806468
:1004400080937A0080917A0086FDFCCF80917800BD
:10045000909179009F838E8300914601109147010E
:10046000BD82AC8280E0780198E0E90EF11C0FB605
:10047000F8940F92D8015A962C915A975B969C91BA
:100480005B97291708F0A3C05A965C905A975C9620
:100490004C915C9741117EC08D919C91892B11F0FC
:1004A00080E00AC0F801E480F580E114F104D9F499
:1004B00080E0F801158214825394D8015A965C9218
:1004C0005A9751969C91992321F0C80141960E9418
:1004D0001A0581110E94CC070F900FBE81E090E0B9
:1004E0000E94520AA8CFD70192968C919297815080
:1004F00092968C93929756962C91569791969C91A2
:100500002917B1F28111D4CF6701B2E0CB0ED11C13
:10051000C6010E941C06F70181A1868B282F30E0BE
:10052000A401421B530B5587448790916B02981787
:1005300010F480936B02729EF001739EF00D1124F3
:10054000E95BFD4F0180F281E02DD7011596FC9308
:10055000EE9314978481958117969C938E931697AA
:10056000A481B5811396DC92CE921297D582C48273
:10057000D7015696EC915697E79DF0011124E95B5F
:10058000FD4F1B96FC93EE931A9780818F5F8083BB
:1005900081E08FCF50E0BE016A5F7F4F12968D9150
:1005A0009C910E941112F801848D22813381820F67
:1005B000932F911D93838283248135818217930722
:1005C00008F46ECF808191819383828369CF2C81DF
:1005D0003D81232B09F480CF811109C080914C010A
:1005E000898380911002909111029B838A830F90DE
:1005F0000FBE0E94C9050FB6F8940F92F801858DC1
:100600008F3F09F4158ED8015E968C915E978F3FCF
:1006100011F45E961C920F900FBEBE016C5F7F4F6F
:10062000CE0101960E94E70481112AC00FB6F8940A
:100630000F92F801928D838D0F900FBE98131AC000
:10064000CC80DD806091420170914301645F7F4FF7
:10065000C7010E94400661E0C6010E940C07C80164
:100660000E94DA050E948A08811102C00E94CC070C
:1006700081E0FDCEC8010E94DA050E948A08F8CF09
:10068000C8010E94DA050E948A0828CF0F931F93A1
:10069000CF93DF9383E390E00E94580EEC01009724
:1006A00051F04F96998388838AE08B8F82E08C8FFC
:1006B000CE010E949C07D0934701C0934601CD2BE9
:1006C000A1F010E000E022E040E850E069E171E0D4
:1006D00085E893E00E94760E21E040E850E060E279
:1006E00071E089E092E00E94760E10E000E020E0E8
:1006F00040E850E06BE271E08FED91E00E94760EF1
:10070000DF91CF911F910F910895CF93DF93CDB7D4
:10071000DEB7A3970FB6F894DEBF0FBECDBFE09152
:100720006901F0916A0182E08083E0916501F091B6
:1007300066011082E0916701F09168018FEC80837F
:1007400010927101E0916D01F0916E0186E080835D
:10075000E0916B01F0916C01808180618083E09178
:100760006B01F0916C01808188608083E0916B0166
:10077000F0916C01808180688083E0916B01F09141
:100780006C0180818F7D80831BA21AA28AE0882E53
:10079000912CA12CB12C4FEF5FEFBE016E5D7F4F0E
:1007A00080914601909147010E94640A813099F737
:1007B000CAA0DBA00D2C000CEE08FF08F7FE37C026
:1007C0006DE289E591E00E94720122273327A90199
:1007D0002C193D094E095F0919A2CE0181967C01B1
:1007E000CA01B901A50194010E94E911605DF701F8
:1007F00062937F01211531054105510589F7E11407
:10080000F10461F001900020E9F73197AF014E1932
:100810005F09B70189E591E00E94CF0042E050E016
:1008200061E371E089E591E00E94CF00B4CFA701B8
:10083000960119A2CE0181967C01CA01B901A501D8
:1008400094010E94E911605DF70162937F01211517
:1008500031054105510589F7D2CF1F920F920FB68E
:100860000F9211242F933F934F935F936F937F9336
:100870008F939F93AF93BF93EF93FF9389E591E09D
:100880000E945001FF91EF91BF91AF919F918F9185
:100890007F916F915F914F913F912F910F900FBE7C
:1008A0000F901F9018951F920F920FB60F92112460
:1008B0002F938F939F93EF93FF93E0916901F091B2
:1008C0006A018081E0916F01F091700182FD1BC08F
:1008D0009081809172018F5F8F73209173018217D5
:1008E00041F0E0917201F0E0E75AFE4F958F80935E
:1008F0007201FF91EF919F918F912F910F900FBEF9
:100900000F901F9018958081F4CF1F920F920FB611
:100910000F9211242F933F938F939F93AF93BF9385
:100920008091550190915601A0915701B0915801C5
:100930003091540123E0230F2D3758F50196A11D66
:10094000B11D209354018093550190935601A093BB
:100950005701B09358018091500190915101A0919D
:100960005201B09153010196A11DB11D8093500118
:1009700090935101A0935201B0935301BF91AF9155
:100980009F918F913F912F910F900FBE0F901F90CD
:10099000189526E8230F0296A11DB11DD2CFE09134
:1009A0001802F09119028081811107C08FEF9FEF2B
:1009B00090931302809312020895E0911802F0912F
:1009C00019020580F681E02D80819181F1CFFC0133
:1009D000DB010FB6F8940F92409110025091110272
:1009E0002D913C9111972F3F320711F18181928116
:1009F00060914C017081761749F04817590730F023
:100A00001D921C9281E00F900FBE0895481B590B58
:100A100042175307A8F7241B350B2D933C93809165
:100A20004C01808380911002909111029283818306
:100A300080E0E9CFCF93DF93DC011596ED91FC9137
:100A40000680F781E02DA489B58986859785208960
:100A50003189EC013D832C83C089D1899B838A83B2
:100A6000CF010C9611962D913C91129728173907BA
:100A700021F41296DC93CE931197158A148A2C9147
:100A800021502C9320914B01211157C0A285B38591
:100A90008481958126813781EC013D832C83C68139
:100AA000D7819B838A83CF01029611962D913C9129
:100AB00012972817390721F41296DC93CE931197D9
:100AC000138612862C9121502C93C68920916B029B
:100AD0002C1710F4C0936B0229E02C9FE001112425
:100AE000C95BDD4F0980DA81C02DD583C4834C8179
:100AF0005D8157834683AC81BD8113969C938E9311
:100B000012979D838C83A689A29FD0011124A95B93
:100B1000BD4FB387A2878C918F5F8C93A0914201C8
:100B2000B0914301968956968C91891730F581E0F2
:100B300080934A01DF91CF910895A0912D02B09149
:100B40002E02B787A68714962D913C911597318B6D
:100B5000208B1496CD91DC9115979B838A831596F3
:100B60009C938E9314978CE292E0958B848B80916A
:100B70002C028F5F80932C02D1CF80E0DBCF0FB6A9
:100B8000F8940F9280911002909111020F900FBE75
:100B9000089580914B018F5F80934B0108950FB6AC
:100BA000F8940F92FC01928D0F900FBE81E091118D
:100BB00080E00895EF92FF920F931F93CF93DF93FE
:100BC000EC010FB6F8940F921E8D7C0181E1E80EC6
:100BD000F11C01E01116D4F08FEF8E8F0F900FBE35
:100BE0000FB6F8940F921D8D7E0188E0E80EF11C7F
:100BF00001E01116B4F08FEF8D8F0F900FBEDF91D3
:100C0000CF911F910F91FF90EF90089589898823CC
:100C100019F3C7010E941A05811100934A0111506E
:100C2000D9CF8885882339F3C7010E941A0581111D
:100C300000934A011150DDCFCF93DF93FC01A085D3
:100C4000B1858281938124813581EC013D832C83A0
:100C5000C481D5819B838A8311968D919C91129733
:100C60008E179F0721F41296DC93CE93119711866D
:100C700010868C9181508C938C91DF91CF91089547
:100C80000F931F93CF93DF938C01FB0180819181A0
:100C9000D80113968F3F9807F1F4E801AF81B8852A
:100CA00012968D919C91139793838283EC01FD831F
:100CB000EC83B583A4831396FC93EE93129711876C
:100CC0000087F80180818F5F8083DF91CF911F9132
:100CD0000F910895D90112962D913C911397E90136
:100CE0004881598184179507A8F7DACFFC017383EF
:100CF0006283918780874617570790F0421B530BFA
:100D00008485958548175907C8F4BF016E5F7F4FEA
:100D10008091F6019091F7010E94400680E00895CD
:100D20004217530718F46217730740F4BF016E5F50
:100D30007F4F8091F8019091F901EECF81E0089505
:100D4000EF92FF920F931F93CF93DF93EC018B01F0
:100D50007A016C857D85600F711F9801A701CE0116
:100D60000E947606811107C0DF91CF911F910F91EC
:100D7000FF90EF9008958C859D85080F191FE889D5
:100D8000F989CE010995E5CFEF92FF920F931F935A
:100D9000CF93DF938C017B01E091F801F091F90191
:100DA0000580F681E02DC681D781CE0102960E9492
:100DB0001C068A8982FF0FC0A701B801CE010E94DC
:100DC000A006E889F989CE01DF91CF911F910F919B
:100DD000FF90EF9009948E7F8A8BF3CFE091F8011A
:100DE000F091F901808181110DC08091F6019091FF
:100DF000F7019093F9018093F801F093F701E093E4
:100E0000F60108950580F681E02D6FEF7FEF808178
:100E100091810E94C406E2CFFF920F931F93CF935C
:100E2000DF93EC01F62E00911002109111028091D7
:100E300042019091430102960E941C06CF3FDC07BD
:100E4000E9F5FF20D9F1E0911B02F0911C02A0917D
:100E50004201B09143011596FC93EE931497A09133
:100E60004201B09143018481958117969C938E93A2
:100E700016978091420190914301A481B581029619
:100E800013969C938E931297809142019091430107
:100E9000029695838483E0914201F09143018AE1B7
:100EA00092E09387828780911A028F5F80931A0263
:100EB000DF91CF911F910F91FF900895C00FD11F27
:100EC000E0914201F0914301D383C28360914201DA
:100ED00070914301C017D10768F480911602909178
:100EE00017026E5F7F4FDF91CF911F910F91FF909F
:100EF0000C94400680911802909119026E5F7F4F0A
:100F00000E9440068091120290911302C817D907DF
:100F100078F6D0931302C0931202CACFFC01039655
:100F2000928381832FEF3FEF3483238396838583DE
:100F30009087878310820895CF93DF93EC010FB6DB
:100F4000F8940F92888199812B8D4C8DBC01249F40
:100F5000600D711D11247D836C831A8E9B838A839F
:100F60002150330B429FB001439F700D1124860F17
:100F7000971F9F838E838FEF8D8F8E8FCE01089664
:100F80000E948E07CE0141960E948E070F900FBEE1
:100F900081E0DF91CF9108950F920FB6F8940F92F0
:100FA0001F9211242F923F924F925F926F927F92E5
:100FB0008F929F92AF92BF92CF92DF92EF92FF9269
:100FC0000F931F932F933F934F935F936F937F9351
:100FD0008F939F93AF93BF93CF93DF93EF93FF9341
:100FE000A0914201B09143010DB60D920EB60D9243
:100FF00080914B01882321F081E080934A015FC0FA
:1010000010924A01A0914201B0914301E091420146
:10101000F09143012D913C918789908D8217930720
:10102000A8F08091420190914301809142019091FA
:101030004301259A2D9A2FEF87EA91E621508040AF
:101040009040E1F700C000001D9AF5CF20916B029F
:1010500089E001C02150422F50E0849FF001859F1C
:10106000F00D1124E95BFD4F9081992399F3A18143
:10107000B28112960D90BC91A02DB283A183289FBE
:10108000C0011124865B9D4FA817B90729F4129659
:101090008D919C919283818389E0849FF001859F4B
:1010A000F00D1124E95BFD4F0180F281E02D868176
:1010B0009781909343018093420120936B02A0910A
:1010C0004201B0914301CD91CDBFDD91DEBFFF91D3
:1010D000EF91DF91CF91BF91AF919F918F917F91D0
:1010E0006F915F914F913F912F911F910F91FF90C1
:1010F000EF90DF90CF90BF90AF909F908F907F90B8
:101100006F905F904F903F902F901F900F900FBE69
:101110000F9008958F929F92BF92CF92DF92EF929D
:10112000FF920F931F93CF93DF930FB6F8940F9214
:1011300080914B01815080934B0180914B0188231A
:1011400079F080E00F900FBEDF91CF911F910F914A
:10115000FF90EF90DF90CF90BF909F908F90089579
:1011600080916E02882369F3E0903102F0903202A0
:10117000F0E0E0E039E041E080912C0281115EC0B6
:10118000EF2B11F00E94CF04E0904801F09049014C
:10119000E114F10409F47DC189E0D82ECC24C39474
:1011A0000FEF1FEF80914B01811161C1C0911002BF
:1011B000D09111024E018FEF881A980A9092110275
:1011C0008092100281149104B9F4809118029091D8
:1011D00019022091160230911702309319022093C0
:1011E0001802909317028093160280914C018F5F32
:1011F00080934C010E94CF048091120290911302BF
:10120000B12C8816990608F026C1E0914201F091B0
:101210004301E689DE9EF0011124E95BFD4F8081E8
:10122000823010F0BB24B39480914A01811103C035
:10123000BB2009F425C1C0924A0122C1D7011696EC
:10124000ED91FC91A489B58966857785808991891E
:10125000EB019D838C8380899189EC017B836A8378
:10126000BF01645F7F4F11960D911C911297061775
:10127000170721F412969C938E931197158A148A5E
:101280008C9181508C93A285B385848195816681F0
:101290007781EC017D836C8366817781EB019B8391
:1012A0008A83CF01029611960D911C91129708170F
:1012B000190721F412967C936E9311971386128668
:1012C0002C9121502C93A68920916B022A1710F49F
:1012D000A0936B023A9FD0011124A95BBD4F1196D8
:1012E0000D90BC91A02DB583A48314966D917C9133
:1012F00015977783668314966D917C911597EB0112
:101300009B838A8315969C938E9314979689939FBB
:10131000D0011124A95BBD4FB387A2878C918F5F49
:101320008C93A0914201B091430156968C919817ED
:1013300008F422CF40934A011FCFE0911802F091A8
:1013400019020580F681E02D0680F781E02D82816B
:1013500093818816990628F49093130280931202C1
:1013600054CFC285D3858481958126813781DC0164
:1013700015963C932E93149726813781D9011396A5
:101380009C938E931297CF01029649815A814817F8
:10139000590711F43A832983138612862881215034
:1013A0002883A489B5891097F9F026853785408967
:1013B0005189E9015D834C8340895189EA013B836E
:1013C0002A8311966D917C9112979F01245F3F4F64
:1013D0006217730721F412965C934E931197158A46
:1013E000148A2C9121502C93A68920916B022A17E4
:1013F00010F4A0936B02DA9ED0011124A95BBD4FBB
:1014000011960D90BC91A02DB583A48314962D91B7
:101410003C9115973783268314962D913C9115970F
:10142000E9019B838A8315969C938E9314979689E2
:101430009D9DD0011124A95BBD4FB387A2878C91DC
:101440008F5F8C93E0914201F09143018689981758
:1014500010F0BB24B394E0911802F091190280813E
:1014600081116BCF1093130200931202CECE8091A4
:101470004801909149010196909349018093480158
:10148000D1E0ED1AF10809F08DCE109249011092C9
:10149000480180914A01882309F453CE0E94CC0769
:1014A00081E050CECF93DF93EC010E94C90560E04C
:1014B000CE010E940C070E948A08811102C00E947E
:1014C000CC07DF91CF910895AF92BF92CF92DF9278
:1014D000EF92FF920F931F93CF93DF9300D000D032
:1014E0001F92CDB7DEB78C016B015D834C8380E02A
:1014F000580191E1A90EB11C0FB6F8940F92F801B2
:10150000F28CFF20C9F1448D4423B1F050E0868174
:101510009781840F951F9783868324813581821755
:10152000930720F08081918197838683F8016681FB
:101530007781C6010E941112FA94F801F28E80851B
:10154000882339F0C80108960E941A0581110E946B
:10155000CC070F900FBE81E00F900F900F900F906F
:101560000F90DF91CF911F910F91FF90EF90DF903F
:10157000CF90BF90AF9008952C813D81232B21F413
:101580000F900FBE80E0E8CF811109C080914C011F
:10159000898380911002909111029B838A830F901E
:1015A0000FBE0E94C9050FB6F8940F92F801858D01
:1015B0008F3F09F4158EF801868D8F3F09F4168E42
:1015C0000F900FBEBE016C5F7F4FCE0101960E944F
:1015D000E704811125C0C8010E94CF058823D1F0FE
:1015E000EC80FD806091420170914301645F7F4F08
:1015F000C5010E94400661E0C7010E940C07C801B6
:101600000E94DA050E948A08811102C00E94CC075C
:1016100081E072CFC8010E94DA050E948A08F8CFE3
:10162000C8010E94DA050E948A08C8010E94CF05FD
:10163000882371F3A7CF0F920FB6F8940F921F92E1
:1016400011242F923F924F925F926F927F928F92CE
:101650009F92AF92BF92CF92DF92EF92FF920F9341
:101660001F932F933F934F935F936F937F938F932A
:101670009F93AF93BF93CF93DF93EF93FF93A0918B
:101680004201B09143010DB60D920EB60D9213BEFC
:1016900080914B018111F9C080911002909111024B
:1016A00001969093110280931002009781F520918A
:1016B000180230911902409116025091170250936E
:1016C00019024093180230931702209316022091BA
:1016D0004C012F5F20934C01E0911802F091190208
:1016E0002081211107C02FEF3FEF30931302209389
:1016F00012020DC0E0911802F09119020580F681E6
:10170000E02D208131813093130220931202209129
:101710001202309113028217930710F420E0A1C047
:1017200020E039E0D32EE0911802F09119023081C7
:10173000311107C08FEF9FEF909313028093120235
:1017400090C0E0911802F09119020580F681E02D19
:101750000680F781E02D428153818417950728F494
:1017600050931302409312027CC0A285B38544813A
:10177000558166817781EA017D836C8366817781FB
:10178000EB015B834A83AF014E5F5F4F11960D9172
:101790001C9112970417150721F412967C936E93EF
:1017A0001197138612863C9131503C93A489B589D8
:1017B0001097F9F06685778500891189EB011D8303
:1017C0000C8300891189E8017B836A831196ED906F
:1017D000FC901297BF01645F7F4FE616F70621F475
:1017E00012961C930E931197158A148A3C913150CE
:1017F0003C93A68930916B023A1710F4A0936B02C8
:10180000DA9ED0011124A95BBD4F11960D90BC91B9
:10181000A02DB583A48314966D917C911597778341
:10182000668314966D917C911597EB015B834A83D7
:1018300015965C934E93149746894D9DD0011124C3
:10184000A95BBD4FB387A2873C913F5F3C93E0917A
:101850004201F09143013689431708F464CF21E037
:1018600062CFE0914201F0914301E689D9E0ED9F1A
:10187000F0011124E95BFD4F8081823008F021E006
:1018800080914A0181110EC00AC080914801909157
:101890004901019690934901809348016AC022232F
:1018A00009F467C080914B01882321F081E0809387
:1018B0004A015FC010924A01A0914201B0914301D8
:1018C000E0914201F09143012D913C918789908DE7
:1018D00082179307A8F08091420190914301809173
:1018E000420190914301259A2D9A2FEF87EA91E6C4
:1018F000215080409040E1F700C000001D9AF5CFD4
:1019000020916B0289E001C02150422F50E0849F5A
:10191000F001859FF00D1124E95BFD4F9081992323
:1019200099F3A181B28112960D90BC91A02DB28342
:10193000A183289FC0011124865B9D4FA817B9077A
:1019400029F412968D919C919283818389E0849FE2
:10195000F001859FF00D1124E95BFD4F0180F281BC
:10196000E02D8681978190934301809342012093DB
:101970006B02A0914201B0914301CD91CDBFDD91A9
:10198000DEBFFF91EF91DF91CF91BF91AF919F911A
:101990008F917F916F915F914F913F912F911F9107
:1019A0000F91FF90EF90DF90CF90BF90AF909F90FE
:1019B0008F907F906F905F904F903F902F901F90EF
:1019C0000F900FBE0F900895CF93DF93009751F0C3
:1019D000EC010E94C905CE010E946011DF91CF91F8
:1019E0000C948A08DF91CF910895CF93DF9300D0B4
:1019F00000D01F92CDB7DEB7E091F801F091F90168
:101A00001081F12CE12C112329F00580F681E02DC5
:101A1000E080F1800E94C9050E94BF056C018091A1
:101A20004E0190914F01C816D90608F04CC00E9493
:101A3000EE06D0924F01C0924E010E948A0850E0FB
:101A400040E0BE016F5F7F4F80910E0290910F02C8
:101A50000E94640A882381F2898187FDF0CF0C817E
:101A60001D81D8011A968D919C91892B21F0C80176
:101A700002960E941C060E94BF057C0180914E01C7
:101A800090914F01E816F90610F40E94EE06F092CC
:101A90004F01E0924E01E981E150E93080F60E2ECF
:101AA000000CFF0BE65AF24FD80152968C915297D8
:101AB0000C940B12DD0DDD0D210E090E1B0EDD0D3C
:101AC000DD0D210E090ED0924F01C0924E0111235F
:101AD00051F0CE14DF0470F00E948A08B601C701ED
:101AE0000E94C406ACCFE091F601F091F70180812D
:101AF00061E0811160E000910E0210910F020FB6BB
:101B0000F8940F92D8015D968C915D978F3F11F4F8
:101B10005D961C92F801868D8F3F09F4168E0F900A
:101B20000FBED8015A968C915A9781113CC052969B
:101B3000ED91FC91A0914201B09143011F96FC935D
:101B4000EE931E97A0914201B0914301848195814B
:101B500051969C938E9350978091420190914301AE
:101B6000A481B5810C9613969C938E9312978091C5
:101B70004201909143010C9695838483E091420148
:101B8000F0914301C8014196958B848BF8018189BE
:101B90008F5F818BC7018C199D09662311F08FEF30
:101BA0009FEF0E940C07C8010E94DA050E948A0874
:101BB000811145CF0E94CC0742CF8160F801828B12
:101BC0002A813B8164857585620F731FA701C80157
:101BD0000E947606882309F432CFD80152968C9160
:101BE000529782FF12C06A817B811C968D919C91D5
:101BF000680F791FA701C8010E94A006D80150965E
:101C0000ED91FC91C80109951ACF8E7FF801828B66
:101C1000F5CF816052968C9352976A817B811D9695
:101C20007C936E931C976E0D7F1D9701A701C801D1
:101C30000E94760604CF81FD04C0C8010E94E40C16
:101C4000FECE8E7FF801828BFACE00E010E080910C
:101C50004D0181110CC080914702823010F00E942A
:101C6000CC070115110599F30E944301F0CF0FB67F
:101C7000F8940F92E0912802F0912902C681D78151
:101C8000CE0102960E941C0680916E0281508093C4
:101C90006E0280914D01815080934D010F900FBED7
:101CA0008F89988D0E94E40CCE010E94E40CCFCF66
:101CB000CF93DF93EC010E94C905CE010E94C410AE
:101CC000EC010E948A08209769F4259A2D9A2FEF3B
:101CD00080E792E0215080409040E1F700C0000092
:101CE0001D9AF5CFCE01DF91CF9108957F928F920B
:101CF0009F92AF92BF92CF92DF92EF92FF920F939B
:101D00001F93CF93DF93982EA92E762E872E7A01DC
:101D1000B22ECA010E94580E6C01892B09F4EDC045
:101D200088E290E00E94580EEC01892B09F4E2C091
:101D300088E2DE011D928A95E9F7D88ECF8AA70145
:101D400065EA70E0C6010E941A12B1E0EB1AF108D0
:101D5000EF89F88DEE0DFF1D672D782DCE01499688
:101D60009B01285F3F4FDB014D91BD01DC014D938D
:101D7000CD01AB0141505109DA014C91442319F0D6
:101D80006217730781F718A2BE8AB9A21B861A864A
:101D90001D8A1C8AD987C88784E090E08B19910935
:101DA0009D878C87DB8BCA8B9082DF011197AC9269
:101DB00011971C92119780E88C9311971C9257975A
:101DC0001C9211971C92B397F983E88301151105B2
:101DD00019F0F801D183C0830FB6F8940F92809167
:101DE0006E028F5F80936E02809142019091430159
:101DF000892B09F091C0D0934301C0934201809197
:101E00006E02813081F587E492E00E948E0780E5C2
:101E100092E00E948E0789E592E00E948E0782E69A
:101E200092E00E948E078EE392E00E948E0785E387
:101E300092E00E948E078CE292E00E948E0783E27D
:101E400092E00E948E078AE192E00E948E078EE364
:101E500092E0909319028093180285E392E09093A8
:101E600017028093160280916C028F5F80936C0240
:101E7000AE8980916B028A1710F4A0936B0229E05F
:101E80002A9FD0011124A95BBD4F11960D90BC91E2
:101E9000A02DBD83AC8314968D919C9115979F8343
:101EA0008E831496ED91FC911597CE010296938343
:101EB000828315969C938E931497EE89E29FF0018E
:101EC0001124E95BFD4FFB87EA8780818F5F808368
:101ED0000F900FBE80916D02882351F0E091420176
:101EE000F091430196898E89981710F40E94CC07CF
:101EF00081E004C0C6010E94E40C8FEFDF91CF9116
:101F00001F910F91FF90EF90DF90CF90BF90AF9017
:101F10009F908F907F90089580916D028111A3CF43
:101F2000E0914201F091430196898E89891708F466
:101F30009ACFD0934301C093420195CF0E941B0BCF
:101F40001895789484B5826084BD84B5816084BD21
:101F500085B5826085BD85B5816085BD80916E0047
:101F6000816080936E001092810080918100826078
:101F700080938100809181008160809381008091B5
:101F800080008160809380008091B10084608093A4
:101F9000B1008091B00081608093B00080917A00A0
:101FA000846080937A0080917A00826080937A00C6
:101FB00080917A00816080937A0080917A008068B5
:101FC00080937A001092C1002091050130910601A2
:101FD0008FEF98E0821B930B909302018093010195
:101FE0000E94460304E112E020E040EC50E064E38C
:101FF00071E085E29EE00E94760E813009F08CC08F
:102000000FB6F8940F9280910E0290910F02892BD7
:1020100049F583E092E00E948E078AEF91E00E94EA
:102020008E0783E092E09093F9018093F8018AEFA4
:1020300091E09093F7018093F60181E590E00E9492
:10204000580EEC01009751F04F96998388838AE0EF
:102050008B8F85E08C8FCE010E949C07D0930F025E
:10206000C0930E020F900FBE80910E0290910F024E
:10207000892B09F451C00CE012E023E045E550E063
:1020800069E371E085EF9CE00E94760E813009F0F3
:1020900043C0F8942FEF3FEF3093130220931202C6
:1020A00080936D021092110210921002A89588E19F
:1020B00090EC0FB6F894A895809360000FBE9093B3
:1020C0006000A0914201B0914301CD91CDBFDD915F
:1020D000DEBFFF91EF91DF91CF91BF91AF919F91C3
:1020E0008F917F916F915F914F913F912F911F91B0
:1020F0000F91FF90EF90DF90CF90BF90AF909F90A7
:102100008F907F906F905F904F903F902F901F9097
:102110000F900FBE0F900895809100010E9446031A
:10212000C0E0D0E02097F1F30E944301FBCFE9E546
:10213000F1E01382128288EE93E0A0E0B0E08483A5
:102140009583A683B7838BE091E09183808385ECB0
:1021500090E09587848784EC90E09787868780EC71
:1021600090E0918B808B81EC90E0938B828B82EC62
:1021700090E0958B848B86EC90E0978B868B118E0C
:10218000128E138E148E08950F931F93CF93DF93A7
:102190008230910510F482E090E0E0917102F091BC
:1021A000720230E020E0B0E0A0E0309799F4211511
:1021B000310509F44AC0281B390B24303105D8F504
:1021C0008A819B816115710589F1FB01938382836B
:1021D000FE0111C0408151810281138148175907C6
:1021E000E0F04817590799F4109761F012960C9394
:1021F000129713961C933296CF01DF91CF911F91C6
:102200000F9108950093710210937202F4CF21157B
:10221000310551F04217530738F0A901DB019A014B
:10222000BD01DF01F801C1CFEF01F9CF9093720238
:1022300080937102CDCFFE01E20FF31F8193919342
:102240002250310939832883D7CF20916F023091F2
:102250007002232B41F4209103013091040130934B
:10226000700220936F02209101013091020121152B
:10227000310541F42DB73EB740910501509106015B
:10228000241B350BE0916F02F0917002E217F30707
:10229000A0F42E1B3F0B2817390778F0AC014E5FD6
:1022A0005F4F2417350748F04E0F5F1F50937002A1
:1022B00040936F02819391939FCFF0E0E0E09CCF39
:1022C000CF93DF930097E9F0FC01329713821282DB
:1022D000A0917102B0917202ED0130E020E0109700
:1022E000A1F420813181820F931F20916F023091E0
:1022F00070022817390709F061C0F0937002E0936B
:102300006F02DF91CF910895EA01CE17DF07E8F55C
:102310004A815B819E0141155105B1F7E901FB83BB
:10232000EA8349915991C40FD51FEC17FD0761F459
:10233000808191810296840F951FE901998388839A
:10234000828193819B838A83F0E0E0E012968D91F5
:102350009C9113970097B9F52D913C911197CD0160
:102360000296820F931F20916F02309170022817FE
:10237000390739F6309751F51092720210927102B6
:10238000B0937002A0936F02BCCFD383C28340810D
:102390005181840F951FC817D90761F44E5F5F4FB5
:1023A00088819981480F591F518340838A819B817D
:1023B000938382832115310509F0B0CFF093720227
:1023C000E09371029ECFFD01DC01C0CF1382128227
:1023D000D7CFA1E21A2EAA1BBB1BFD010DC0AA1F5D
:1023E000BB1FEE1FFF1FA217B307E407F50720F07E
:1023F000A21BB30BE40BF50B661F771F881F991FF9
:102400001A9469F760957095809590959B01AC0141
:10241000BD01CF010895EE0FFF1F0590F491E02D4F
:102420000994FB01DC0102C001900D924150504023
:10243000D8F70895DC0101C06D9341505040E0F79A
:102440000895F894FFCF030000730280000000009D
:10245000007201CF00FC00BF012D010B011F0153D1
:10246000657269616C00416E616C6F675265616491
:1024700000426C696E6B000D0A0049444C450054E3
:082480006D7220537663000029
:107E0000112484B714BE81FFF0D085E080938100F7
:107E100082E08093C00088E18093C10086E0809377
:107E2000C20080E18093C4008EE0C9D0259A86E02C
:107E300020E33CEF91E0309385002093840096BBD3
:107E4000B09BFECF1D9AA8958150A9F7CC24DD24C4
:107E500088248394B5E0AB2EA1E19A2EF3E0BF2EE7
:107E6000A2D0813461F49FD0082FAFD0023811F036
:107E7000013811F484E001C083E08DD089C08234E0
:107E800011F484E103C0853419F485E0A6D080C0E4
:107E9000853579F488D0E82EFF2485D0082F10E0AE
:107EA000102F00270E291F29000F111F8ED06801E7
:107EB0006FC0863521F484E090D080E0DECF843638
:107EC00009F040C070D06FD0082F6DD080E0C81688
:107ED00080E7D80618F4F601B7BEE895C0E0D1E017
:107EE00062D089930C17E1F7F0E0CF16F0E7DF06D8
:107EF00018F0F601B7BEE89568D007B600FCFDCFD4
:107F0000A601A0E0B1E02C9130E011968C91119780
:107F100090E0982F8827822B932B1296FA010C0160
:107F200087BEE89511244E5F5F4FF1E0A038BF0790
:107F300051F7F601A7BEE89507B600FCFDCF97BE46
:107F4000E89526C08437B1F42ED02DD0F82E2BD052
:107F50003CD0F601EF2C8F010F5F1F4F84911BD097
:107F6000EA94F801C1F70894C11CD11CFA94CF0C13
:107F7000D11C0EC0853739F428D08EE10CD085E9AC
:107F80000AD08FE07ACF813511F488E018D01DD067
:107F900080E101D065CF982F8091C00085FFFCCF94
:107FA0009093C60008958091C00087FFFCCF809118
:107FB000C00084FD01C0A8958091C6000895E0E648
:107FC000F0E098E1908380830895EDDF803219F02E
:107FD00088E0F5DFFFCF84E1DECF1F93182FE3DFCA
:107FE0001150E9F7F2DF1F91089580E0E8DFEE27F6
:047FF000FF270994CA
:027FFE00040479
:00000001FF
