:100000000C945C000C9479000C9479000C947900A9
:100010000C9479000C9479000C942A0D0C947900BE
:100020000C9479000C9479000C9479000C9479006C
:100030000C9479000C9479000C9479000C9479005C
:100040000C9466010C9479000C9479000C9479005E
:100050000C9479000C9479000C9479000C9479003C
:100060000C9479000C947900000000080002010053
:100070000003040700000000000000000000000072
:10008000250028002B0000000000240027002A0083
:10009000040404040404040402020202020203032E
:1000A0000303030301020408102040800102040836
:1000B000102001020408102011241FBECFEFD8E049
:1000C000DEBFCDBF11E0A0E0B1E0E2E9FFE102C098
:1000D00005900D92A034B107D9F721E0A0E4B1E07A
:1000E00001C01D92A23DB207E1F70E94300E0C94B0
:1000F000C70F0C94000090E0FC01EC55FF4F2491D9
:1001000080579F4FFC018491882399F090E0880FDD
:10011000991FFC01EA57FF4FA591B491FC01E458E7
:10012000FF4F859194918FB7F894EC91E22BEC936B
:100130008FBF089590E0FC01E859FF4F2491FC0126
:10014000EC55FF4F3491FC01E057FF4FE491EE2353
:10015000C9F0222339F0233001F1A8F4213019F13C
:10016000223029F1F0E0EE0FFF1FE458FF4FA59178
:10017000B4918FB7F894EC91611126C030953E236D
:100180003C938FBF08952730A9F02830C9F0243060
:1001900049F7809180008F7D03C0809180008F7728
:1001A00080938000DFCF84B58F7784BDDBCF84B5AB
:1001B0008F7DFBCF8091B0008F778093B000D2CF3E
:1001C0008091B0008F7DF9CF3E2BDACF61E087E0E0
:1001D0000E949A0060E971E080E090E00E94A10630
:1001E00060E087E00E949A0060E971E080E090E0C2
:1001F0000E94A106EBCF61E084E00E949A0060E2D9
:1002000073E080E090E00E94A10660E084E00E943C
:100210009A0060E273E080E090E00E94A106EBCFDC
:1002200061E082E00E949A0068EE73E080E090E076
:100230000E94A10660E082E00E949A0068EE73E0EE
:1002400080E090E00E94A106EBCF0F931F93CF9325
:10025000DF9300D000D000D0CDB7DEB782E00E949F
:100260007B0084E00E947B0087E00E947B008E017F
:100270000F5F1F4F22E048EC50E064E171E080E145
:1002800091E00E943E0B0E5F1F4F22E048EC50E0D1
:1002900063E271E08BEF90E00E943E0B0E5F1F4F18
:1002A00022E048EC50E060E371E086EE90E00E94CE
:1002B0003E0B0E945E0C26960FB6F894DEBF0FBE72
:1002C000CDBFDF91CF911F910F9108951F920F9293
:1002D0000FB60F9211242F933F938F939F93AF9359
:1002E000BF938091710190917201A0917301B091BF
:1002F00074013091700123E0230F2D3758F50196DA
:10030000A11DB11D20937001809371019093720122
:10031000A0937301B093740180916C0190916D0171
:10032000A0916E01B0916F010196A11DB11D809346
:100330006C0190936D01A0936E01B0936F01BF911A
:10034000AF919F918F913F912F910F900FBE0F9082
:100350001F90189526E8230F0296A11DB11DD2CF3C
:10036000E0917701F09178018081811107C08FEFD2
:100370009FEF9093600180935F010895E091770172
:10038000F09178010580F681E02D80819181F1CF97
:10039000CF93DF93DC011596ED91FC910680F781F8
:1003A000E02DA489B5898685978520893189EC015E
:1003B0003D832C83C089D1899B838A83CF010C968E
:1003C00011962D913C9112972817390721F4129616
:1003D000DC93CE931197158A148A2C9121502C937B
:1003E00020915D01211157C0A285B385848195813B
:1003F00026813781EC013D832C83C681D7819B8385
:100400008A83CF01029611962D913C91129728175D
:10041000390721F41296DC93CE9311971386128636
:100420002C9121502C93C6892091CA012C1710F4CD
:10043000C093CA0129E02C9FE0011124CA55DE4F68
:100440000980DA81C02DD583C4834C815D815783B7
:100450004683AC81BD8113969C938E9312979D83A6
:100460008C83A689A29FD0011124AA55BE4FB387C1
:10047000A2878C918F5F8C93A0914001B091410134
:10048000968956968C91891730F581E080935C01AE
:10049000DF91CF910895A0918C01B0918D01B78724
:1004A000A68714962D913C911597318B208B14962D
:1004B000CD91DC9115979B838A8315969C938E939F
:1004C00014978BE891E0958B848B80918B018F5FE3
:1004D00080938B01D1CF80E0DBCF0FB6F8940F92E1
:1004E00080916301909164010F900FBE0895AF92C7
:1004F000BF92DF92EF92FF920F931F93CF93DF9300
:100500000FB6F8940F9280915D01815080935D0148
:1005100080915D01811168C08091CD01882309F42B
:1005200063C0E0909001F0909101F0E0E0E039E0EC
:1005300041E080918B01811164C0EF2B11F00E948A
:10054000B001E0905A01F0905B01E114F10409F46C
:1005500049C089E0D82E0FEF1FEF80915D01811116
:1005600055C1C0916301D09164015E018FEFA81A5B
:10057000B80AB0926401A0926301A114B104B9F465
:1005800080917701909178012091750130917601E9
:1005900030937801209377019093760180937501D1
:1005A000809165018F5F809365010E94B001809109
:1005B0005F0190916001A816B90658F0E0917701AB
:1005C000F0917801808181119BC0109360010093AC
:1005D0005F01D1E0ED1AF10809F0BFCF10925B0185
:1005E00010925A0180915C010F900FBE80E0DF9164
:1005F000CF911F910F91FF90EF90DF90BF90AF9040
:100600000895D7011696ED91FC91A489B589668568
:10061000778580899189EB019D838C83808991897D
:10062000EC017B836A83BF01645F7F4F11960D915C
:100630001C9112970617170721F412969C938E931C
:100640001197158A148A8C9181508C93A285B38559
:100650008481958166817781EC017D836C836681DD
:100660007781EB019B838A83CF01029611960D91CE
:100670001C9112970817190721F412967C936E9318
:100680001197138612862C9121502C93A6892091C4
:10069000CA012A1710F4A093CA013A9FD00111246D
:1006A000AA55BE4F11960D90BC91A02DB583A48381
:1006B00014966D917C9115977783668314966D914E
:1006C0007C911597EB019B838A8315969C938E935F
:1006D00014979689939FD0011124AA55BE4FB387D2
:1006E000A2878C918F5F8C93A0914001B0914101C2
:1006F00056968C91981708F41CCF40935C0119CF43
:10070000E0917701F09178010580F681E02D068077
:10071000F781E02D82819381A816B90628F4909381
:10072000600180935F0155CFC285D3858481958117
:1007300026813781DC0115963C932E9314972681F0
:100740003781D90113969C938E931297CF0102960D
:1007500049815A814817590711F43A83298313862E
:100760001286288121502883A489B5891097F9F031
:100770002685378540895189E9015D834C8340890D
:100780005189EA013B832A8311966D917C911297DE
:100790009F01245F3F4F6217730721F412965C9309
:1007A0004E931197158A148A2C9121502C93A68967
:1007B0002091CA012A1710F4A093CA01DA9ED00131
:1007C0001124AA55BE4F11960D90BC91A02DB58352
:1007D000A48314962D913C91159737832683149604
:1007E0002D913C911597E9019B838A8315969C93E3
:1007F0008E931497A689AD9DD0011124AA55BE4FA2
:10080000B387A2878C918F5F8C93D8CE80915A0149
:1008100090915B01019690935B0180935A01D9CE30
:1008200080915D018F5F80935D0108950FB6F8940C
:100830000F92FC01928D0F900FBE81E0911180E02C
:100840000895EF92FF920F931F93CF93DF93EC01E4
:100850000FB6F8940F921E8D7C0181E1E80EF11C19
:1008600001E01116D4F08FEF8E8F0F900FBE0FB6F0
:10087000F8940F921D8D7E0188E0E80EF11C01E0D6
:100880001116B4F08FEF8D8F0F900FBEDF91CF91C7
:100890001F910F91FF90EF9008958989882319F394
:1008A000C7010E94C801811100935C011150D9CF8A
:1008B0008885882339F3C7010E94C80181110093FC
:1008C0005C011150DDCFCF93DF93FC01A085B18592
:1008D0008281938124813581EC013D832C83C48105
:1008E000D5819B838A8311968D919C9112978E1747
:1008F0009F0721F41296DC93CE93119711861086F0
:100900008C9181508C938C91DF91CF9108950F93AE
:100910001F93CF93DF938C01FB0180819181D801DC
:1009200013968F3F9807F1F4E801AF81B8851296CE
:100930008D919C91139793838283EC01FD83EC83CB
:10094000B583A4831396FC93EE93129711870087C7
:10095000F80180818F5F8083DF91CF911F910F918C
:100960000895D90112962D913C911397E901488180
:10097000598184179507A8F7DACFFC017383628346
:10098000918780874617570790F0421B530B848549
:10099000958548175907C8F4BF016E5F7F4F809156
:1009A0006801909169010E94870480E008954217D0
:1009B000530718F46217730740F4BF016E5F7F4F4F
:1009C00080916A0190916B01EECF81E00895EF92E2
:1009D000FF920F931F93CF93DF93EC018B017A016A
:1009E0006C857D85600F711F9801A701CE010E9463
:1009F000BD04811107C0DF91CF911F910F91FF902E
:100A0000EF9008958C859D85080F191FE889F98955
:100A1000CE010995E5CFEF92FF920F931F93CF93ED
:100A2000DF938C017B01E0916A01F0916B010580FD
:100A3000F681E02DC681D781CE0102960E94630423
:100A40008A8982FF0FC0A701B801CE010E94E70486
:100A5000E889F989CE01DF91CF911F910F91FF9025
:100A6000EF9009948E7F8A8BF3CFE0916A01F09129
:100A70006B01808181110DC08091680190916901A5
:100A800090936B0180936A01F0936901E093680190
:100A900008950580F681E02D6FEF7FEF80819181D1
:100AA0000E940B05E2CFFF920F931F93CF93DF932A
:100AB000EC01F62E009163011091640180914001D8
:100AC0009091410102960E946304CF3FDC07E9F553
:100AD000FF20D9F1E0917A01F0917B01A0914001D2
:100AE000B09141011596FC93EE931497A0914001AB
:100AF000B09141018481958117969C938E931697AE
:100B00008091400190914101A481B5810296139694
:100B10009C938E931297809140019091410102968F
:100B200095838483E0914001F091410189E791E050
:100B300093878287809179018F5F80937901DF911C
:100B4000CF911F910F91FF900895C00FD11FE09199
:100B50004001F0914101D383C283609140017091C3
:100B60004101C017D10768F4809175019091760119
:100B70006E5F7F4FDF91CF911F910F91FF900C948B
:100B8000870480917701909178016E5F7F4F0E947A
:100B9000870480915F0190916001C817D90778F6AA
:100BA000D0936001C0935F01CACFFC01039692838A
:100BB00081832FEF3FEF3483238396838583908750
:100BC0008783108208950F920FB6F8940F921F92A8
:100BD00011242F923F924F925F926F927F928F9249
:100BE0009F92AF92BF92CF92DF92EF92FF920F93BC
:100BF0001F932F933F934F935F936F937F938F93A5
:100C00009F93AF93BF93CF93DF93EF93FF93A09105
:100C10004001B09141010DB60D920EB60D9280913A
:100C20005D01882321F081E080935C015FC0109218
:100C30005C01A0914001B0914101E0914001F0912F
:100C400041012D913C918789908D82179307A8F0DF
:100C5000809140019091410180914001909141012A
:100C6000259A2D9A2FEF87EA91E6215080409040F7
:100C7000E1F700C000001D9AF5CF2091CA0189E07C
:100C800001C02150422F50E0849FF001859FF00D5C
:100C90001124EA55FE4F9081992399F3A181B281E5
:100CA00012960D90BC91A02DB283A183289FC00104
:100CB000112487559E4FA817B90729F412968D91D4
:100CC0009C919283818389E0849FF001859FF00D40
:100CD0001124EA55FE4F0180F281E02D8681978133
:100CE00090934101809340012093CA01A09140015B
:100CF000B0914101CD91CDBFDD91DEBFFF91EF916C
:100D0000DF91CF91BF91AF919F918F917F916F9123
:100D10005F914F913F912F911F910F91FF90EF9015
:100D2000DF90CF90BF90AF909F908F907F906F900B
:100D30005F904F903F902F901F900F900FBE0F909D
:100D400008959F92AF92BF92CF92DF92EF92FF925F
:100D50000F931F93CF93DF936B017C0180915D0113
:100D60008F5F80935D012091630130916401E09178
:100D70004001F0914101A285B3858481958146812E
:100D80005781EC015D834C83C681D7819B838A8325
:100D9000CF01029611964D915C9112974817590711
:100DA00021F41296DC93CE931197138612868C91C0
:100DB00081508C938C91C60114E0969587951A9575
:100DC000E1F7820F931FE0914001F091410193837D
:100DD0008283C0914001D09141018217930708F0AE
:100DE0001AC1CE01029600917501109176012A81F7
:100DF0003B812F3F320709F001C1D8011796ED91D1
:100E0000FC91228133813D832C83D90115969C93DB
:100E10008E931497FF83EE83938382831B870A87C5
:100E2000E80188818F5F88830FB6F8940F928091D4
:100E30005D01815080935D0180915D01811177C0DA
:100E40008091CD01882309F472C0A0909001B090E8
:100E50009101F0E0E0E039E041E080918B01811107
:100E600016C1EF2B69F0E0917701F0917801808154
:100E700081118CC18FEF9FEF9093600180935F0190
:100E800020915A0130915B012115310509F44DC0C3
:100E9000D9E09D2E0FEF1FEF80915D01811112C2ED
:100EA0008091630190916401019690936401809315
:100EB0006301009701F540917701509178016091AD
:100EC000750170917601709378016093770150936A
:100ED000760140937501409165014F5F4093650134
:100EE000E0917701F09178014081411159C110934F
:100EF000600100935F0140915F0150916001841790
:100F0000950758F0E0917701F09178014081411107
:100F100055C11093600100935F012150310909F020
:100F2000BBCF10925B0110925A0180915C010F902F
:100F30000FBE0E94E305DFE0CD22DD24EE24FF2476
:100F40003FB7F89480916C0190916D01A0916E0172
:100F5000B0916F0126B5A89B05C02F3F19F00196EF
:100F6000A11DB11D3FBFBA2FA92F982F8827820F2F
:100F7000911DA11DB11DC2E0880F991FAA1FBB1FA3
:100F8000CA95D1F7C114D104E104F10409F4A4C154
:100F90003FB7F89440916C0150916D0160916E01E2
:100FA00070916F0126B5A89B06C02F3F21F04F5FBF
:100FB0005F4F6F4F7F4F3FBF762F652F542F4427D2
:100FC000420F511D611D711DE2E0440F551F661F48
:100FD000771FEA95D1F7481B590B6A0B7B0B483EEC
:100FE00053406105710570F2E1E0CE1AD108E108C5
:100FF000F10888519C4FAF4FBF4FC4CFF8013396D3
:1010000042815381DA016D917C912617370708F4EC
:10101000F8CEFA01F5CF8E010E5F1F4FA090770139
:10102000B09078012A813B812F3F320721F5D5010D
:101030001796ED91FC91228133813D832C83D90158
:1010400015961C930E931497FF83EE8313830283EC
:10105000BB86AA86E50128812F5F288320915F0146
:10106000309160018217930708F0DECE9093600103
:1010700080935F01D9CEF501339642815381DA0125
:101080006D917C9126173707B0F2FA01F6CFD501A2
:101090001696ED91FC91A489B5896685778580893E
:1010A0009189EB019D838C8380899189EC017B83FD
:1010B0006A83BF01645F7F4F11960D911C91129757
:1010C0000617170721F412969C938E931197158A91
:1010D000148A8C9181508C93A285B38584819581EB
:1010E00066817781EC017D836C8366817781EB017A
:1010F0009B838A83CF01029611960D911C911297C2
:101100000817190721F412967C936E931197138692
:1011100012862C9121502C93A6892091CA012A175E
:1011200010F4A093CA013A9FD0011124AA55BE4FD2
:1011300011960D90BC91A02DB583A48314966D914A
:101140007C9115977783668314966D917C911597A2
:10115000EB019B838A8315969C938E9314979689B3
:10116000939FD0011124AA55BE4FB387A2878C91BB
:101170008F5F8C93A0914001B091410156968C9164
:10118000981708F46ACE40935C0167CEE09177012E
:10119000F09178010580F681E02D808191816CCEFF
:1011A000E0917701F09178010580F681E02D408192
:1011B00051815093600140935F019DCEE091770192
:1011C000F09178010580F681E02D0680F781E02D11
:1011D000428153818417950728F45093600140930E
:1011E0005F019BCEA285B38544815581668177815D
:1011F000EA017D836C83C681D7815B834A83AF011B
:101200004E5F5F4F11966D917C9112976417750731
:1012100021F41296DC93CE931197138612866C916B
:1012200061506C93A489B5891097F1F06685778534
:10123000A088B188EB01BD82AC82C089D1897B8353
:101240006A831196AD90BC901297BF01645F7F4F87
:10125000A616B70621F41296DC93CE931197158A41
:10126000148A6C9161506C93A6896091CA016A17C7
:1012700010F4A093CA019A9ED0011124AA55BE4F22
:1012800011960D90BC91A02DB583A48314966D91F9
:101290007C911597778366831496CD91DC91159791
:1012A0005B834A8315965C934E931497A689A99DF8
:1012B000D0011124AA55BE4FB387A2874C914F5F2E
:1012C0004C9320CE80915A0190915B0101969093AE
:1012D0005B0180935A0121CEDF91CF911F910F9135
:1012E000FF90EF90DF90CF90BF90AF909F900895C8
:1012F000CF93DF93009751F0EC010E941004CE01D0
:101300000E94280FDF91CF910C947702DF91CF914B
:101310000895CF93DF9300D000D01F92CDB7DEB7F2
:10132000E0916A01F0916B011081F12CE12C112305
:1013300029F00580F681E02DE080F1800E94100404
:101340000E946D026C018091610190916201C8164A
:10135000D90608F082C00E943505D0926201C09281
:1013600061010E94770200916601109167010FB63A
:10137000F8940F92D8015A96FC905A97FF2009F4DE
:101380002DC15C964C915C97442301F150E0169678
:101390008D919C911797840F951F17969C938E9310
:1013A000169714962D913C9115978217930738F054
:1013B0008D919C91119717969C938E931697F80197
:1013C00066817781CE0101960E94B70FFA94D80109
:1013D0005A96FC925A9718968C91882321F0C8014E
:1013E00008960E94C8010F900FBED980D7FCBBCFD2
:1013F0000C811D81D8011A968D919C91892B21F029
:10140000C80102960E9463040E946D027C018091D3
:10141000610190916201E816F90610F40E94350509
:10142000F0926201E0926101EFEFED0DE93008F01A
:101430009ACF0E2E000CFF0BEC5DF54FD8015296A3
:101440008C9152970C94B10FA70AA70AEA0AD20A04
:10145000E40AA70AA70AEA0AD20AD0926201C09255
:101460006101112351F0CE14DF0470F00E94770265
:10147000B601C7010E940B0576CFE0916801F0919B
:101480006901808161E0811160E000916601109145
:1014900067010FB6F8940F92D8015D968C915D9715
:1014A0008F3F11F45D961C92F801868D8F3F09F4F1
:1014B000168E0F900FBED8015A968C915A978111B3
:1014C0003CC05296ED91FC91A0914001B091410138
:1014D0001F96FC93EE931E97A0914001B09141019D
:1014E0008481958151969C938E9350978091400171
:1014F00090914101A481B5810C9613969C938E9393
:10150000129780914001909141010C9695838483BC
:10151000E0914001F0914101C8014196958B848B87
:10152000F80181898F5F818BC7018C199D09662322
:1015300011F08FEF9FEF0E945305C8010E94210414
:101540000E94770281110FCF0E94E3050CCF8160CA
:10155000F801828BCA80DB80648575856C0D7D1DEA
:101560009601A701C8010E94BD04882309F4FBCE9F
:10157000D80152968C91529782FF10C01C966D91A3
:101580007C916C0D7D1DA701C8010E94E704D80164
:101590005096ED91FC91C8010995E5CE8E7FF8013A
:1015A000828BF5CF816052968C9352976A817B81B2
:1015B0001D967C936E931C976E0D7F1D9701A7015E
:1015C000C8010E94BD04CFCE81FD04C0C8010E94A5
:1015D0007809C9CE8E7FF801828BC5CE0F900FBEE1
:1015E0009FCE00E010E080915E01811108C00E9452
:1015F000E30501151105B9F30E940000F4CF0FB601
:10160000F8940F92E0918701F0918801C681D7810B
:10161000CE0102960E9463048091CD018150809397
:10162000CD0180915E01815080935E010F900FBECD
:101630008F89988D0E947809CE010E947809D3CFB6
:10164000CF93DF93EC010E941004CE010E948C0E18
:10165000EC010E947702209769F4259A2D9A2FEFCA
:1016600080E792E0215080409040E1F700C0000008
:101670001D9AF5CFCE01DF91CF9108957F928F9281
:101680009F92AF92BF92CF92DF92EF92FF920F9311
:101690001F93CF93DF93982EA92E762E872E7A0153
:1016A000B22ECA010E94200B6C01892B09F4E5C0FF
:1016B00088E290E00E94200BEC01892B09F4DAC04B
:1016C00088E2DE011D928A95E9F7D88ECF8AA701BC
:1016D00065EA70E0C6010E94C00FB1E0EB1AF108A4
:1016E000EF89F88DEE0DFF1D672D782DCE014996FF
:1016F0009B01285F3F4FDB014D91BD01DC014D9304
:10170000CD01AB0141505109DA014C91442319F04C
:101710006217730781F718A2BE8AB9A21B861A86C0
:101720001D8A1C8AD987C88784E090E08B199109AB
:101730009D878C87DB8BCA8B9082DF011197AC92DF
:1017400011971C92119780E88C9311971C925797D0
:101750001C9211971C92B397F983E883F801D18307
:10176000C0830FB6F8940F928091CD018F5F809364
:10177000CD018091400190914101892B09F08CC0ED
:10178000D0934101C09340018091CD01813081F51A
:1017900086EA91E00E94D5058FEA91E00E94D50586
:1017A00088EB91E00E94D50581EC91E00E94D5057F
:1017B0008DE991E00E94D50584E991E00E94D5056C
:1017C0008BE891E00E94D50582E891E00E94D50562
:1017D00089E791E00E94D5058DE991E09093780129
:1017E0008093770184E991E090937601809375016D
:1017F0008091CB018F5F8093CB01AE898091CA012C
:101800008A1710F4A093CA0189E08A9FD00111249D
:10181000AA55BE4F11960D90BC91A02DBD83AC83EF
:1018200014962D913C9115973F832E839E012E5F38
:101830003F4F1496ED91FC911597338322831596B3
:101840003C932E931497EE89E89FF0011124EA55FA
:10185000FE4FFB87EA8780818F5F80830F900FBEEA
:101860008091CC01882321F0809140019091410129
:1018700081E004C0C6010E9478098FEFDF91CF910B
:101880001F910F91FF90EF90DF90CF90BF90AF909E
:101890009F908F907F9008958091CC018111A8CF67
:1018A000E0914001F091410196898E89891708F4F1
:1018B0009FCFD0934101C09340019ACF0F931F93C4
:1018C000CF93DF9308E511E020E040EC50E067E0C3
:1018D00071E081EF9AE00E943E0B813009F0B3C0C5
:1018E0000FB6F8940F928091660190916701892B51
:1018F00009F04FC08DE491E00E94D50584E491E0A9
:101900000E94D5058DE491E090936B0180936A016C
:1019100084E491E0909369018093680181E590E00F
:101920000E94200BEC01009781F14F9699838883E8
:101930008AE08B8F85E08C8F0FB6F8940F928881A8
:1019400099812B8D4C8DBC01249F600D711D11243C
:101950007D836C831A8E9B838A832150330B429F35
:10196000B001439F700D1124860F971F9F838E83B4
:101970008FEF8D8F8E8FCE0108960E94D505CE01F8
:1019800041960E94D5050F900FBED0936701C0937A
:1019900066010F900FBE8091660190916701892BBF
:1019A00009F451C006E511E023E045E550E06CE0A4
:1019B00071E089E899E00E943E0B813009F043C054
:1019C000F8942FEF3FEF3093600120935F018093F5
:1019D000CC011092640110926301A89588E190EC0B
:1019E0000FB6F894A895809360000FBE90936000A6
:1019F000A0914001B0914101CD91CDBFDD91DEBFFD
:101A0000FF91EF91DF91CF91BF91AF919F918F9116
:101A10007F916F915F914F913F912F911F910F9106
:101A2000FF90EF90DF90CF90BF90AF909F908F90FE
:101A30007F906F905F904F903F902F901F900F90EE
:101A40000FBE0F90089580910001DF91CF911F91FB
:101A50000F9108951F920F920FB60F9211240F93BA
:101A60001F932F933F934F935F936F938F939F9306
:101A7000AF93BF93CF93DF93EF93FF9380915D017B
:101A80008111E4C08091630190916401019690936B
:101A9000640180936301009711F5209177013091E3
:101AA00078014091750150917601509378014093EF
:101AB00077013093760120937501209165012F5FA6
:101AC00020936501E0917701F09178012081211147
:101AD0002FC02FEF3FEF3093600120935F012091E3
:101AE0005F01309160018217930770F069E0E09127
:101AF0007701F09178012081211124C08FEF9FEFB1
:101B00009093600180935F01FF91EF91DF91CF91FE
:101B1000BF91AF919F918F916F915F914F913F9145
:101B20002F911F910F910F900FBE0F901F9018953E
:101B3000E0917701F09178010580F681E02D208118
:101B40003181C9CFE0917701F09178010580F6816C
:101B5000E02D0680F781E02D2281338182179307E3
:101B600028F43093600120935F01CECFA285B38526
:101B70002481358146815781E9015D834C83C6818B
:101B8000D7813B832A839F012E5F3F4F11964D9152
:101B90005C9112974217530721F41296DC93CE936F
:101BA0001197138612864C9141504C93A489B589A4
:101BB0001097F1F04685578500891189EA011D8348
:101BC0000C83C089D1895B834A8311960D911C9146
:101BD0001297AF01445F5F4F0417150721F4129667
:101BE000DC93CE931197158A148A4C9141504C93F3
:101BF000A6894091CA014A1710F4A093CA016A9FAE
:101C0000D0011124AA55BE4F11960D90BC91A02D64
:101C1000B583A48314964D915C91159757834683A1
:101C20001496CD91DC9115973B832A8315963C93AE
:101C30002E931497A689A69FD0011124AA55BE4FB2
:101C4000B387A2872C912F5F2C9351CF80915A019B
:101C500090915B01019690935B0180935A0154CF60
:101C6000789484B5826084BD84B5816084BD85B577
:101C7000826085BD85B5816085BD80916E00816083
:101C800080936E0010928100809181008260809329
:101C9000810080918100816080938100809180002B
:101CA0008160809380008091B10084608093B10056
:101CB0008091B00081608093B00080917A00846050
:101CC00080937A0080917A00826080937A0080917C
:101CD0007A00816080937A0080917A008068809396
:101CE0007A001092C10020910501309106018FEF1A
:101CF00098E0821B930B90930201809301010E9454
:101D000025010E945E0C0E942501C0E0D0E02097D2
:101D1000F1F30E940000FBCF0F931F93CF93DF934B
:101D20008230910510F482E090E0E091D001F091D2
:101D3000D10130E020E0B0E0A0E0309799F4211527
:101D4000310509F44AC0281B390B24303105D8F578
:101D50008A819B816115710589F1FB0193838283DF
:101D6000FE0111C04081518102811381481759073A
:101D7000E0F04817590799F4109761F012960C9308
:101D8000129713961C933296CF01DF91CF911F913A
:101D90000F9108950093D0011093D101F4CF211534
:101DA000310551F04217530738F0A901DB019A01C0
:101DB000BD01DF01F801C1CFEF01F9CF9093D1014F
:101DC0008093D001CDCFFE01E20FF31F8193919359
:101DD0002250310939832883D7CF2091CE01309109
:101DE000CF01232B41F42091030130910401309362
:101DF000CF012093CE0120910101309102012115E4
:101E0000310541F42DB73EB74091050150910601CF
:101E1000241B350BE091CE01F091CF01E217F307BF
:101E2000A0F42E1B3F0B2817390778F0AC014E5F4A
:101E30005F4F2417350748F04E0F5F1F5093CF01B7
:101E40004093CE01819391939FCFF0E0E0E09CCF4F
:101E5000CF93DF930097E9F0FC013297138212824F
:101E6000A091D001B091D101ED0130E020E01097B8
:101E7000A1F420813181820F931F2091CE013091F6
:101E8000CF012817390709F061C0F093CF01E09323
:101E9000CE01DF91CF910895EA01CE17DF07E8F573
:101EA0004A815B819E0141155105B1F7E901FB8330
:101EB000EA8349915991C40FD51FEC17FD0761F4CE
:101EC000808191810296840F951FE901998388830F
:101ED000828193819B838A83F0E0E0E012968D916A
:101EE0009C9113970097B9F52D913C911197CD01D5
:101EF0000296820F931F2091CE013091CF012817B7
:101F0000390739F6309751F51092D1011092D0016E
:101F1000B093CF01A093CE01BCCFD383C2834081C5
:101F20005181840F951FC817D90761F44E5F5F4F29
:101F300088819981480F591F518340838A819B81F1
:101F4000938382832115310509F0B0CFF093D1013D
:101F5000E093D0019ECFFD01DC01C0CF138212823D
:101F6000D7CFEE0FFF1F0590F491E02D0994FB01F0
:101F7000DC0102C001900D9241505040D8F7089505
:101F8000DC0101C06D9341505040E0F70895F89492
:021F9000FFCF81
:101F9200030000D201800049444C4500546D722078
:101FA200537663004C45445F677265656E5F74618A
:101FB200736B004C45445F7265645F7461736B00C0
:101FC2004C45445F79656C6C6F775F7461736B002D
:00000001FF
