:020000040000FA
:100000000C9435000C945D000C945D000C945D0024
:100010000C945D000C945D000C94370B0C945D0007
:100020000C945D000C945D000C945D000C945D00DC
:100030000C945D000C945D000C945D000C945D00CC
:100040000C943B020C945D000C9409020C94E301A7
:100050000C945D000C945D000C945D000C945D00AC
:100060000C945D000C945D00990C11241FBECFEF21
:10007000D8E0DEBFCDBF11E0A0E0B1E0E6E0FCE1FA
:1000800002C005900D92AA35B107D9F722E0AAE582
:10009000B1E001C01D92A938B207E1F710E0C5E355
:1000A000D0E004C02197FE010E94EB0DC433D107BC
:1000B000C9F70E943D0C0C94010E0C940000AF9205
:1000C000BF92CF92DF92EF92FF920F931F93CF9345
:1000D000DF936C017B018B01040F151FEB015E01A7
:1000E000AE18BF08C017D10759F06991D601ED913C
:1000F000FC910190F081E02DC6010995892B79F7DB
:10010000C501DF91CF911F910F91FF90EF90DF908C
:10011000CF90BF90AF900895FC01538D448D252F53
:1001200030E0842F90E0821B930B541710F0CF9691
:10013000089501970895FC01918D828D981761F0C3
:10014000A28DAE0FBF2FB11D5D968C91928D9F5FDA
:100150009F73928F90E008958FEF9FEF0895FC01B9
:10016000918D828D981731F0828DE80FF11D858D6C
:1001700090E008958FEF9FEF0895FC01918D228DFF
:10018000892F90E0805C9F4F821B91098F73992784
:10019000089588EE91E00E94BD0021E0892B09F4CA
:1001A00020E0822F08950E94C90081110C94000064
:1001B000089580E090E0892B11F00C94D30008950D
:1001C000FC01A48DA80FB92FB11DA35ABF4F2C91CC
:1001D000848D90E001968F739927848FA689B789C3
:1001E0002C93A089B1898C91837080648C93938DBA
:1001F000848D981306C00288F389E02D80818F7D5D
:1002000080830895EF92FF920F931F93CF93DF9314
:10021000EC0181E0888F9B8D8C8D98131AC0E88942
:10022000F989808185FF15C09FB7F894EE89FF8911
:100230006083E889F98980818370806480839FBFAF
:1002400081E090E0DF91CF911F910F91FF90EF90AF
:100250000895F62E0B8D10E00F5F1F4F0F731127BF
:10026000E02E8C8D8E110CC00FB607FCFACFE889FA
:10027000F989808185FFF5CFCE010E94E000F1CFA2
:10028000EB8DEC0FFD2FF11DE35AFF4FF0829FB76E
:10029000F8940B8FEA89FB8980818062CFCFCF935E
:1002A000DF93EC01888D8823B9F0AA89BB89E8899E
:1002B000F9898C9185FD03C0808186FD0DC00FB644
:1002C00007FCF7CF8C9185FFF2CF808185FFEDCFC2
:1002D000CE010E94E000E9CFDF91CF910895EF9227
:1002E000FF920F93CF93DF9300D000D0CDB7DEB74E
:1002F000E8EEF1E0A089B18982E08C93A485B58510
:100300001C92A685B7858FEC8C93108EA489B58935
:1003100086E08C93A289B3898C9180618C93A289A9
:10032000B3898C9188608C93A289B3898C91806801
:100330008C930288F389E02D80818F7D8083CE01AC
:1003400001967C0102E026E231E048EC50E067E3F0
:1003500071E081EE91E00E943C09CE0103967C01A0
:100360002EE331E048EC50E06FE471E086EC91E080
:100370000E943C090E94610A0F900F900F900F900D
:10038000DF91CF910F91FF90EF900895EC012097AE
:1003900069F0FE0101900020E9F73197AF014C1B95
:1003A0005D0BBE0188EE91E00E945F0042E050E0EC
:1003B00066E571E088EE91E00E945F000E94B80659
:1003C000E6CF0E94C6011F920F920FB60F92112422
:1003D0002F933F934F935F936F937F938F939F934D
:1003E000AF93BF93EF93FF9388EE91E00E94E000FC
:1003F000FF91EF91BF91AF919F918F917F916F91FD
:100400005F914F913F912F910F900FBE0F901F90D2
:1004100018951F920F920FB60F9211242F938F935E
:100420009F93EF93FF93E091F801F091F9018081A0
:10043000E091FE01F091FF0182FD1BC0908180914F
:1004400001028F5F8F7320910202821741F0E091C9
:100450000102F0E0E851FE4F958F80930102FF9179
:10046000EF919F918F912F910F900FBE0F901F9042
:1004700018958081F4CF1F920F920FB60F9211241E
:100480002F933F938F939F93AF93BF938091E401FA
:100490009091E501A091E601B091E7013091E3016F
:1004A00023E0230F2D3758F50196A11DB11D209390
:1004B000E3018093E4019093E501A093E601B093FA
:1004C000E7018091DF019091E001A091E101B091FD
:1004D000E2010196A11DB11D8093DF019093E0011F
:1004E000A093E101B093E201BF91AF919F918F91F1
:1004F0003F912F910F900FBE0F901F90189526E8F7
:10050000230F0296A11DB11DD2CFE091D001F09131
:10051000D1018081811107C08FEF9FEF9093CF01B0
:100520008093CE010895E091D001F091D101058032
:10053000F681E02D80819181F1CFCF93DF93DC01B3
:100540001596ED91FC910680F781E02DA489B5897F
:100550008685978520893189EC013D832C83C0896C
:10056000D1899B838A83CF010C9611962D913C9162
:1005700012972817390721F41296DC93CE9311971E
:10058000158A148A2C9121502C932091B9012111A4
:1005900057C0A285B3858481958126813781EC017E
:1005A0003D832C83C681D7819B838A83CF010296AA
:1005B00011962D913C9112972817390721F4129624
:1005C000DC93CE931197138612862C9121502C9395
:1005D000C6892091B8012C1710F4C093B80129E006
:1005E0002C9FE0011124CC56DE4F0980DA81C02D0A
:1005F000D583C4834C815D8157834683AC81BD81A3
:1006000013969C938E9312979D838C83A689A29FA9
:10061000D0011124AC56BE4FB387A2878C918F5F57
:100620008C93A0915A01B0915B01968956968C915A
:10063000891730F581E080938A01DF91CF91089589
:10064000A0918C01B0918D01B787A68714962D914A
:100650003C911597318B208B1496CD91DC91159799
:100660009B838A8315969C938E9314978BE891E0D5
:10067000958B848B80918B018F5F80938B01D1CF81
:1006800080E0DBCF0FB6F8940F928091D601909165
:10069000D7010F900FBE0895AF92BF92DF92EF92F5
:1006A000FF920F931F93CF93DF930FB6F8940F929F
:1006B0008091B90181508093B9018091B901811174
:1006C00068C08091BB01882309F463C0E090900169
:1006D000F0909101F0E0E0E039E041E080918B01A1
:1006E000811164C0EF2B11F00E948502E090880117
:1006F000F0908901E114F10409F449C089E0D82E91
:100700000FEF1FEF8091B901811155C1C091D60142
:10071000D091D7015E018FEFA81AB80AB092D70125
:10072000A092D601A114B104B9F48091D0019091A6
:10073000D1012091D2013091D3013093D101209386
:10074000D0019093D3018093D2018091D8018F5F23
:100750008093D8010E9485028091CE019091CF01B3
:10076000A816B90658F0E091D001F091D10180812E
:1007700081119BC01093CF010093CE01D1E0ED1AFF
:10078000F10809F0BFCF1092890110928801809181
:100790008A010F900FBE80E0DF91CF911F910F91E2
:1007A000FF90EF90DF90BF90AF900895D70116961D
:1007B000ED91FC91A489B5896685778580899189B9
:1007C000EB019D838C8380899189EC017B836A8313
:1007D000BF01645F7F4F11960D911C911297061710
:1007E000170721F412969C938E931197158A148AF9
:1007F0008C9181508C93A285B3858481958166818B
:100800007781EC017D836C8366817781EB019B832B
:100810008A83CF01029611960D911C9112970817A9
:10082000190721F412967C936E9311971386128602
:100830002C9121502C93A6892091B8012A1710F4ED
:10084000A093B8013A9FD0011124AC56BE4F119627
:100850000D90BC91A02DB583A48314966D917C91CD
:1008600015977783668314966D917C911597EB01AC
:100870009B838A8315969C938E9314979689939F56
:10088000D0011124AC56BE4FB387A2878C918F5FE5
:100890008C93A0915A01B0915B0156968C91981758
:1008A00008F41CCF40938A0119CFE091D001F09158
:1008B000D1010580F681E02D0680F781E02D82814F
:1008C0009381A816B90628F49093CF018093CE01A6
:1008D00055CFC285D3858481958126813781DC01FE
:1008E00015963C932E93149726813781D901139640
:1008F0009C938E931297CF01029649815A81481793
:10090000590711F43A8329831386128628812150CE
:100910002883A489B5891097F9F026853785408901
:100920005189E9015D834C8340895189EA013B8308
:100930002A8311966D917C9112979F01245F3F4FFE
:100940006217730721F412965C934E931197158AE0
:10095000148A2C9121502C93A6892091B8012A1732
:1009600010F4A093B801DA9ED0011124AC56BE4F0A
:1009700011960D90BC91A02DB583A48314962D9152
:100980003C9115973783268314962D913C911597AA
:10099000E9019B838A8315969C938E931497A6896D
:1009A000AD9DD0011124AC56BE4FB387A2878C9168
:1009B0008F5F8C93D8CE80918801909189010196A8
:1009C0009093890180938801D9CE8091B9018F5F7E
:1009D0008093B90108950FB6F8940F92FC01928D9F
:1009E0000F900FBE81E0911180E00895EF92FF9289
:1009F0000F931F93CF93DF93EC010FB6F8940F92F0
:100A00001E8D7C0181E1E80EF11C01E01116D4F08D
:100A10008FEF8E8F0F900FBE0FB6F8940F921D8D33
:100A20007E0188E0E80EF11C01E01116B4F08FEFB2
:100A30008D8F0F900FBEDF91CF911F910F91FF907F
:100A4000EF9008958989882319F3C7010E949D02B8
:100A5000811100938A011150D9CF8885882339F3F9
:100A6000C7010E949D02811100938A011150DDCFC0
:100A7000CF93DF93FC01A085B1858281938124818E
:100A80003581EC013D832C83C481D5819B838A838E
:100A900011968D919C9112978E179F0721F41296B3
:100AA000DC93CE931197118610868C9181508C9394
:100AB0008C91DF91CF9108950F931F93CF93DF9384
:100AC0008C01FB0180819181D80113968F3F98079B
:100AD000F1F4E801AF81B88512968D919C9113973E
:100AE00093838283EC01FD83EC83B583A483139607
:100AF000FC93EE93129711870087F80180818F5F36
:100B00008083DF91CF911F910F910895D9011296A3
:100B10002D913C911397E9014881598184179507DC
:100B2000A8F7DACFFC017383628391878087461729
:100B3000570790F0421B530B84859585481759073A
:100B4000C8F4BF016E5F7F4F8091DB019091DC01A3
:100B50000E945C0580E008954217530718F462175D
:100B6000730740F4BF016E5F7F4F8091DD0190916C
:100B7000DE01EECF81E00895EF92FF920F931F9375
:100B8000CF93DF93EC018B017A016C857D85600F3B
:100B9000711F9801A701CE010E949205811107C023
:100BA000DF91CF911F910F91FF90EF9008958C8569
:100BB0009D85080F191FE889F989CE010995E5CFB0
:100BC000EF92FF920F931F93CF93DF938C017B01E2
:100BD000E091DD01F091DE010580F681E02DC68116
:100BE000D781CE0102960E9438058A8982FF0FC004
:100BF000A701B801CE010E94BC05E889F989CE01A0
:100C0000DF91CF911F910F91FF90EF9009948E7F0C
:100C10008A8BF3CFE091DD01F091DE0180818111BB
:100C20000DC08091DB019091DC019093DE018093F7
:100C3000DD01F093DC01E093DB0108950580F6818E
:100C4000E02D6FEF7FEF808191810E94E005E2CF80
:100C5000FF920F931F93CF93DF93EC01F62E009139
:100C6000D6011091D70180915A0190915B010296B3
:100C70000E943805CF3FDC07E9F5FF20D9F1E0916C
:100C8000C601F091C701A0915A01B0915B01159680
:100C9000FC93EE931497A0915A01B0915B0184816B
:100CA000958117969C938E93169780915A019091F7
:100CB0005B01A481B581029613969C938E93129743
:100CC00080915A0190915B01029695838483E09113
:100CD0005A01F0915B0185EC91E0938782878091C6
:100CE000C5018F5F8093C501DF91CF911F910F9157
:100CF000FF900895C00FD11FE0915A01F0915B0160
:100D0000D383C28360915A0170915B01C017D107F0
:100D100068F48091D2019091D3016E5F7F4FDF9193
:100D2000CF911F910F91FF900C945C058091D001A1
:100D30009091D1016E5F7F4F0E945C058091CE0142
:100D40009091CF01C817D90778F6D093CF01C093FF
:100D5000CE01CACFFC010396928381832FEF3FEF30
:100D600034832383968385839087878310820895B5
:100D70000F920FB6F8940F921F9211242F923F9268
:100D80004F925F926F927F928F929F92AF92BF929B
:100D9000CF92DF92EF92FF920F931F932F933F9387
:100DA0004F935F936F937F938F939F93AF93BF9373
:100DB000CF93DF93EF93FF93A0915A01B0915B0122
:100DC0000DB60D920EB60D928091B901882321F0D7
:100DD00081E080938A015FC010928A01A0915A013C
:100DE000B0915B01E0915A01F0915B012D913C9132
:100DF0008789908D82179307A8F080915A0190916E
:100E00005B0180915A0190915B01259A2D9A2FEFF9
:100E100087EA91E6215080409040E1F700C0000051
:100E20001D9AF5CF2091B80189E001C02150422FD1
:100E300050E0849FF001859FF00D1124EC56FE4F89
:100E40009081992399F3A181B28112960D90BC9162
:100E5000A02DB283A183289FC001112489569E4FE3
:100E6000A817B90729F412968D919C9192838183DA
:100E700089E0849FF001859FF00D1124EC56FE4F10
:100E80000180F281E02D8681978190935B018093B0
:100E90005A012093B801A0915A01B0915B01CD9104
:100EA000CDBFDD91DEBFFF91EF91DF91CF91BF917B
:100EB000AF919F918F917F916F915F914F913F91F2
:100EC0002F911F910F91FF90EF90DF90CF90BF90E7
:100ED000AF909F908F907F906F905F904F903F90DA
:100EE0002F901F900F900FBE0F900895CF93DF9318
:100EF000009751F0EC010E94E504CE010E94620DC2
:100F0000DF91CF910C944C03DF91CF910895CF9353
:100F1000DF9300D000D01F92CDB7DEB7E091DD01A6
:100F2000F091DE011081F12CE12C112329F00580D4
:100F3000F681E02DE080F1800E94E5040E944203EA
:100F40006C018091D4019091D501C816D90608F0A2
:100F500082C00E940A06D092D501C092D4010E949C
:100F60004C030091D9011091DA010FB6F8940F9259
:100F7000D8015A96FC905A97FF2009F42DC15C962F
:100F80004C915C97442301F150E016968D919C9111
:100F90001797840F951F17969C938E931697149608
:100FA0002D913C9115978217930738F08D919C9164
:100FB000119717969C938E931697F8016681778107
:100FC000CE0101960E94F10DFA94D8015A96FC9236
:100FD0005A9718968C91882321F0C80108960E9490
:100FE0009D020F900FBED980D7FCBBCF0C811D8115
:100FF000D8011A968D919C91892B21F0C8010296F7
:101000000E9438050E9442037C018091D401909196
:10101000D501E816F90610F40E940A06F092D501EF
:10102000E092D401EFEFED0DE93008F09ACF0E2EEB
:10103000000CFF0BEE5DF74FD80152968C91529742
:101040000C94EB0DA508A508E808D008E208A5084F
:10105000A508E808D008D092D501C092D401112388
:1010600051F0CE14DF0470F00E944C03B601C701AA
:101070000E94E00576CFE091DB01F091DC018081F8
:1010800061E0811160E00091D9011091DA010FB6A1
:10109000F8940F92D8015D968C915D978F3F11F473
:1010A0005D961C92F801868D8F3F09F4168E0F9085
:1010B0000FBED8015A968C915A9781113CC0529616
:1010C000ED91FC91A0915A01B0915B011F96FC93A8
:1010D000EE931E97A0915A01B0915B018481958196
:1010E00051969C938E93509780915A0190915B01F9
:1010F000A481B5810C9613969C938E931297809140
:101100005A0190915B010C9695838483E0915A017A
:10111000F0915B01C8014196958B848BF801818920
:101120008F5F818BC7018C199D09662311F08FEFAA
:101130009FEF0E942806C8010E94F6040E944C03FB
:1011400081110FCF0E94B8060CCF8160F801828B0D
:10115000CA80DB80648575856C0D7D1D9601A701B5
:10116000C8010E949205882309F4FBCED80152964B
:101170008C91529782FF10C01C966D917C916C0DE2
:101180007D1DA701C8010E94BC05D8015096ED91B4
:10119000FC91C8010995E5CE8E7FF801828BF5CFD1
:1011A000816052968C9352976A817B811D967C93C5
:1011B0006E931C976E0D7F1D9701A701C8010E94B9
:1011C0009205CFCE81FD04C0C8010E947607C9CE2A
:1011D0008E7FF801828BC5CE0F900FBE9FCE00E0B0
:1011E00010E08091BA01811108C00E94B806011573
:1011F0001105B9F30E94D300F4CF0FB6F8940F9203
:10120000E091C101F091C201C681D781CE01029661
:101210000E9438058091BB0181508093BB01809171
:10122000BA0181508093BA010F900FBE8F89988DBB
:101230000E947607CE010E947607D3CFCF93DF932B
:10124000EC010E94E504CE010E94C60CEC010E9454
:101250004C03209769F4259A2D9A2FEF80E792E0AE
:10126000215080409040E1F700C000001D9AF5CF6A
:10127000CE01DF91CF9108955F926F927F928F920E
:101280009F92AF92BF92CF92DF92EF92FF920F9315
:101290001F93CF93DF93782E892E562E672E6A01E7
:1012A000922E132FCA010E941E095C01892B09F49A
:1012B000E5C088E290E00E941E09EC01892B09F448
:1012C000DAC088E2DE011D928A95E9F7B88EAF8A0E
:1012D000A60165EA70E0C5010E94FA0DB1E0CB1AE3
:1012E000D108EF89F88DEC0DFD1D652D762DCE0111
:1012F00049969B01285F3F4FDB014D91BD01DC0109
:101300004D93CD01AB0141505109DA014C91442379
:1013100019F06217730781F718A20E8B09A31B86B9
:101320001A861D8A1C8AD987C88784E090E0801BB2
:1013300091099D878C87DB8BCA8B7082DF011197A7
:101340008C9211971C92119780E88C9311971C92A4
:1013500057979C9211971C93B397F983E883F701F1
:10136000D183C0830FB6F8940F928091BB018F5F39
:101370008093BB0180915A0190915B01892B09F008
:101380008EC0D0935B01C0935A018091BB01813024
:1013900081F584E991E00E94AA068DE991E00E941E
:1013A000AA0686EA91E00E94AA068FEA91E00E94CE
:1013B000AA0687E691E00E94AA068EE591E00E94C7
:1013C000AA068BE891E00E94AA068CEB91E00E94AD
:1013D000AA0685EC91E00E94AA0687E691E0909328
:1013E000D1018093D0018EE591E09093D301809359
:1013F000D201809170018F5F80937001AE898091DE
:10140000B8018A1710F4A093B80189E08A9FD0012F
:101410001124AC56BE4F11960D90BC91A02DBD83EA
:10142000AC8314962D913C9115973F832E839E019A
:101430002E5F3F4F1496ED91FC91159733832283D5
:1014400015963C932E931497EE89E89FF001112492
:10145000EC56FE4FFB87EA8780818F5F80830F9079
:101460000FBE80918501882321F080915A019091CF
:101470005B0181E004C0C5010E9476078FEFDF9118
:10148000CF911F910F91FF90EF90DF90CF90BF9081
:10149000AF909F908F907F906F905F900895809114
:1014A00085018111A6CFE0915A01F0915B019689E7
:1014B0008E89891708F49DCFD0935B01C0935A01A0
:1014C00098CFEF92FF920F93CF93DF9396E8E92E98
:1014D00091E0F92E00E030E020E040EC50E069E1DE
:1014E00071E08FEE98E00E943C09813009F0B7C0AE
:1014F0000FB6F8940F928091D9019091DA01892B5F
:1015000009F04FC08AE791E00E94AA0681E791E0C6
:101510000E94AA068AE791E09093DE018093DD01A4
:1015200081E791E09093DC018093DB0181E590E01D
:101530000E941E09EC01009781F14F9699838883E0
:101540008AE08B8F85E08C8F0FB6F8940F9288819C
:1015500099812B8D4C8DBC01249F600D711D112430
:101560007D836C831A8E9B838A832150330B429F29
:10157000B001439F700D1124860F971F9F838E83A8
:101580008FEF8D8F8E8FCE0108960E94AA06CE0116
:1015900041960E94AA060F900FBED093DA01C09325
:1015A000D9010F900FBE8091D9019091DA01892B5A
:1015B00009F455C083E8E82E81E0F82E03E030E01E
:1015C00020E045E550E06EE171E087E897E00E9499
:1015D0003C09813009F043C0F8942FEF3FEF30937E
:1015E000CF012093CE01809385011092D7011092F4
:1015F000D601A89588E190EC0FB6F894A895809351
:1016000060000FBE90936000A0915A01B0915B0101
:10161000CD91CDBFDD91DEBFFF91EF91DF91CF91F5
:10162000BF91AF919F918F917F916F915F914F91FA
:101630003F912F911F910F91FF90EF90DF90CF90EE
:10164000BF90AF909F908F907F906F905F904F90E2
:101650003F902F901F900F900FBE0F900895809194
:101660000001DF91CF910F91FF90EF9008951F92AD
:101670000F920FB60F9211240F931F932F933F9346
:101680004F935F936F938F939F93AF93BF93CF933A
:10169000DF93EF93FF938091B9018111E4C08091B2
:1016A000D6019091D70101969093D7018093D601EE
:1016B000009711F52091D0013091D1014091D201D4
:1016C0005091D3015093D1014093D0013093D30175
:1016D0002093D2012091D8012F5F2093D801E0916F
:1016E000D001F091D101208121112FC02FEF3FEFC8
:1016F0003093CF012093CE012091CE013091CF01C4
:101700008217930770F069E0E091D001F091D10168
:101710002081211124C08FEF9FEF9093CF01809300
:10172000CE01FF91EF91DF91CF91BF91AF919F914A
:101730008F916F915F914F913F912F911F910F91D9
:101740000F900FBE0F901F901895E091D001F0916F
:10175000D1010580F681E02D20813181C9CFE09152
:10176000D001F091D1010580F681E02D0680F7814E
:10177000E02D228133818217930728F43093CF0123
:101780002093CE01CECFA285B385248135814681B9
:101790005781E9015D834C83C681D7813B832A83CE
:1017A0009F012E5F3F4F11964D915C91129742170A
:1017B000530721F41296DC93CE9311971386128669
:1017C0004C9141504C93A489B5891097F1F046850E
:1017D000578500891189EA011D830C83C089D1894D
:1017E0005B834A8311960D911C911297AF01445F60
:1017F0005F4F0417150721F41296DC93CE931197CF
:10180000158A148A4C9141504C93A6894091B80195
:101810004A1710F4A093B8016A9FD0011124AC5666
:10182000BE4F11960D90BC91A02DB583A483149644
:101830004D915C911597578346831496CD91DC9119
:1018400015973B832A8315963C932E931497A6896C
:10185000A69FD0011124AC56BE4FB387A2872C910E
:101860002F5F2C9351CF809188019091890101962F
:10187000909389018093880154CF789484B58260D5
:1018800084BD84B5816084BD85B5826085BD85B524
:10189000816085BD80916E00816080936E001092A2
:1018A000810080918100826080938100809181001D
:1018B00081608093810080918000816080938000AE
:1018C0008091B10084608093B1008091B00081600C
:1018D0008093B00080917A00846080937A00809138
:1018E0007A00826080937A0080917A008160809390
:1018F0007A0080917A00806880937A001092C1000B
:1019000020910501309106018FEF98E0821B930B27
:1019100090930201809301010E946F010E94610A6D
:101920000E946F01C0E0D0E02097F1F30E94D30045
:10193000FBCFE8EEF1E01382128288EE93E0A0E0A4
:10194000B0E084839583A683B7838BE091E0918395
:10195000808385EC90E09587848784EC90E097877E
:10196000868780EC90E0918B808B81EC90E0938B6C
:10197000828B82EC90E0958B848B86EC90E0978B49
:10198000868B118E128E138E148E08950F931F93D3
:10199000CF93DF938230910510F482E090E0E091E4
:1019A0008702F091880230E020E0B0E0A0E03097BC
:1019B00099F42115310509F44AC0281B390B24304C
:1019C0003105D8F58A819B816115710589F1FB018B
:1019D00093838283FE0111C0408151810281138172
:1019E00048175907E0F04817590799F4109761F024
:1019F00012960C93129713961C933296CF01DF9197
:101A0000CF911F910F910895009387021093880240
:101A1000F4CF2115310551F04217530738F0A901D1
:101A2000DB019A01BD01DF01F801C1CFEF01F9CF60
:101A30009093880280938702CDCFFE01E20FF31FBF
:101A4000819391932250310939832883D7CF2091F4
:101A5000850230918602232B41F4209103013091BD
:101A60000401309386022093850220910101309178
:101A700002012115310541F42DB73EB74091050112
:101A800050910601241B350BE0918502F0918602EE
:101A9000E217F307A0F42E1B3F0B2817390778F045
:101AA000AC014E5F5F4F2417350748F04E0F5F1FA4
:101AB0005093860240938502819391939FCFF0E0EB
:101AC000E0E09CCFCF93DF930097E9F0FC013297E1
:101AD00013821282A0918702B0918802ED0130E05A
:101AE00020E01097A1F420813181820F931F209173
:101AF0008502309186022817390709F061C0F093FA
:101B00008602E0938502DF91CF910895EA01CE1716
:101B1000DF07E8F54A815B819E0141155105B1F768
:101B2000E901FB83EA8349915991C40FD51FEC1752
:101B3000FD0761F4808191810296840F951FE90170
:101B400099838883828193819B838A83F0E0E0E09C
:101B500012968D919C9113970097B9F52D913C9118
:101B60001197CD010296820F931F2091850230912B
:101B700086022817390739F6309751F510928802F6
:101B800010928702B0938602A0938502BCCFD383C4
:101B9000C28340815181840F951FC817D90761F412
:101BA0004E5F5F4F88819981480F591F5183408351
:101BB0008A819B81938382832115310509F0B0CFFF
:101BC000F0938802E09387029ECFFD01DC01C0CF35
:101BD00013821282D7CFEE0FFF1F0590F491E02DF4
:101BE0000994FB01DC0102C001900D92415050406C
:101BF000D8F70895DC0101C06D9341505040E0F7E3
:101C00000895F894FFCF03000089028000000000CF
:101C10000002015F008C004F01BD009B00AF004936
:101C2000444C4500546D72205376630048656C6CDB
:101C30006F20576F726C642066726F6D20546173F1
:101C40006B2D310048656C6C6F20576F726C64208F
:101C500066726F6D205461736B2D32000D0A0000A7
:107E0000112484B714BE81FFF0D085E080938100F7
:107E100082E08093C00088E18093C10086E0809377
:107E2000C20080E18093C4008EE0C9D0259A86E02C
:107E300020E33CEF91E0309385002093840096BBD3
:107E4000B09BFECF1D9AA8958150A9F7CC24DD24C4
:107E500088248394B5E0AB2EA1E19A2EF3E0BF2EE7
:107E6000A2D0813461F49FD0082FAFD0023811F036
:107E7000013811F484E001C083E08DD089C08234E0
:107E800011F484E103C0853419F485E0A6D080C0E4
:107E9000853579F488D0E82EFF2485D0082F10E0AE
:107EA000102F00270E291F29000F111F8ED06801E7
:107EB0006FC0863521F484E090D080E0DECF843638
:107EC00009F040C070D06FD0082F6DD080E0C81688
:107ED00080E7D80618F4F601B7BEE895C0E0D1E017
:107EE00062D089930C17E1F7F0E0CF16F0E7DF06D8
:107EF00018F0F601B7BEE89568D007B600FCFDCFD4
:107F0000A601A0E0B1E02C9130E011968C91119780
:107F100090E0982F8827822B932B1296FA010C0160
:107F200087BEE89511244E5F5F4FF1E0A038BF0790
:107F300051F7F601A7BEE89507B600FCFDCF97BE46
:107F4000E89526C08437B1F42ED02DD0F82E2BD052
:107F50003CD0F601EF2C8F010F5F1F4F84911BD097
:107F6000EA94F801C1F70894C11CD11CFA94CF0C13
:107F7000D11C0EC0853739F428D08EE10CD085E9AC
:107F80000AD08FE07ACF813511F488E018D01DD067
:107F900080E101D065CF982F8091C00085FFFCCF94
:107FA0009093C60008958091C00087FFFCCF809118
:107FB000C00084FD01C0A8958091C6000895E0E648
:107FC000F0E098E1908380830895EDDF803219F02E
:107FD00088E0F5DFFFCF84E1DECF1F93182FE3DFCA
:107FE0001150E9F7F2DF1F91089580E0E8DFEE27F6
:047FF000FF270994CA
:027FFE00040479
:00000001FF
