:020000040000FA
:100000000C9434000C9451000C9451000C94510049
:100010000C9451000C9451000C94AD0A0C945100B6
:100020000C9451000C9451000C9451000C9451000C
:100030000C9451000C9451000C9451000C945100FC
:100040000C9483000C9451000C9451000C945100BA
:100050000C9451000C9451000C9451000C945100DC
:100060000C9451000C94510011241FBECFEFD8E026
:10007000DEBFCDBF11E0A0E0B1E0E4E2FAE102C0F2
:1000800005900D92A434B107D9F721E0A4E4B1E0C2
:1000900001C01D92A63DB207E1F70E94B00A0C9480
:1000A000100D0C94000008950895EF92FF920F93A5
:1000B000CF93DF9300D000D0CDB7DEB7CE0101964D
:1000C0007C0102E027E031E048EC50E068E171E0BB
:1000D00084E590E00E948309CE0103967C012FE124
:1000E00031E048EC50E060E371E083E590E00E948D
:1000F00083090F900F900F900F90DF91CF910F9188
:10010000FF90EF9008951F920F920FB60F92112457
:100110002F933F938F939F93AF93BF938091AD01A4
:100120009091AE01A091AF01B091B0013091AC01BE
:1001300023E0230F2D3758F50196A11DB11D209303
:10014000AC018093AD019093AE01A093AF01B09349
:10015000B0018091A8019091A901A091AA01B0914C
:10016000AB010196A11DB11D8093A8019093A90137
:10017000A093AA01B093AB01BF91AF919F918F91D2
:100180003F912F910F900FBE0F901F90189526E86A
:10019000230F0296A11DB11DD2CFE091A101F091D4
:1001A000A2018081811107C08FEF9FEF9093CF0153
:1001B0008093CE010895E091A101F091A201058004
:1001C000F681E02D80819181F1CFCF93DF93DC0127
:1001D0001596ED91FC910680F781E02DA489B589F3
:1001E0008685978520893189EC013D832C83C089E0
:1001F000D1899B838A83CF010C9611962D913C91D6
:1002000012972817390721F41296DC93CE93119791
:10021000158A148A2C9121502C9320916801211168
:1002200057C0A285B3858481958126813781EC01F1
:100230003D832C83C681D7819B838A83CF0102961D
:1002400011962D913C9112972817390721F4129697
:10025000DC93CE931197138612862C9121502C9308
:10026000C689209167012C1710F4C093670129E01B
:100270002C9FE0011124CC58DE4F0980DA81C02D7B
:10028000D583C4834C815D8157834683AC81BD8116
:1002900013969C938E9312979D838C83A689A29F1D
:1002A000D0011124AC58BE4FB387A2878C918F5FC9
:1002B0008C93A0914401B0914501968956968C91FA
:1002C000891730F581E080935D01DF91CF9108952A
:1002D000A0915F01B0916001B787A68714962D9118
:1002E0003C911597318B208B1496CD91DC9115970D
:1002F0009B838A8315969C938E9314978EE591E049
:10030000958B848B80915E018F5F80935E01D1CF4E
:1003100080E0DBCF0FB6F8940F928091CB019091E3
:10032000CC010F900FBE0895809168018F5F80937C
:10033000680108950FB6F8940F92FC01928D0F900A
:100340000FBE81E0911180E00895EF92FF920F932C
:100350001F93CF93DF93EC010FB6F8940F921E8D8D
:100360007C0181E1E80EF11C01E01116D4F08FEF61
:100370008E8F0F900FBE0FB6F8940F921D8D7E01D9
:1003800088E0E80EF11C01E01116B4F08FEF8D8FBC
:100390000F900FBEDF91CF911F910F91FF90EF90C3
:1003A00008958989882319F3C7010E94E500811106
:1003B00000935D011150D9CF8885882339F3C70197
:1003C0000E94E500811100935D011150DDCFCF93B4
:1003D000DF93FC01A085B1858281938124813581E1
:1003E000EC013D832C83C481D5819B838A83119644
:1003F0008D919C9112978E179F0721F41296DC9392
:10040000CE931197118610868C9181508C938C918C
:10041000DF91CF9108950F931F93CF93DF938C01BA
:10042000FB0180819181D80113968F3F9807F1F4E9
:10043000E801AF81B88512968D919C9113979383B3
:100440008283EC01FD83EC83B583A4831396FC9334
:10045000EE93129711870087F80180818F5F808368
:10046000DF91CF911F910F910895D90112962D918F
:100470003C911397E9014881598184179507A8F7A2
:10048000DACFFC0173836283918780874617570711
:1004900090F0421B530B8485958548175907C8F483
:1004A000BF016E5F7F4F8091B1019091B2010E94B8
:1004B0000B0280E008954217530718F46217730780
:1004C00040F4BF016E5F7F4F8091B3019091B40102
:1004D000EECF81E00895EF92FF920F931F93CF9399
:1004E000DF93EC018B017A016C857D85600F711FB4
:1004F0009801A701CE010E944102811107C0DF913E
:10050000CF911F910F91FF90EF9008958C859D855D
:10051000080F191FE889F989CE010995E5CFEF92F7
:10052000FF920F931F93CF93DF938C017B01E09198
:10053000B301F091B4010580F681E02DC681D78129
:10054000CE0102960E94E7018A8982FF0FC0A701AF
:10055000B801CE010E946B02E889F989CE01DF91D2
:10056000CF911F910F91FF90EF9009948E7F8A8B0E
:10057000F3CFE091B301F091B401808181110DC0FE
:100580008091B1019091B2019093B4018093B30135
:10059000F093B201E093B10108950580F681E02D5A
:1005A0006FEF7FEF808191810E948F02E2CFFF92F7
:1005B0000F931F93CF93DF93EC01F62E0091CB01A5
:1005C0001091CC01809144019091450102960E94C6
:1005D000E701CF3FDC07E9F5FF20D9F1E091990170
:1005E000F0919A01A0914401B09145011596FC93B8
:1005F000EE931497A0914401B091450184819581B7
:1006000017969C938E931697809144019091450183
:10061000A481B581029613969C938E931297809134
:10062000440190914501029695838483E0914401B1
:10063000F091450188E991E0938782878091980144
:100640008F5F80939801DF91CF911F910F91FF9061
:100650000895C00FD11FE0914401F0914501D3836B
:10066000C2836091440170914501C017D10768F4BD
:100670008091A3019091A4016E5F7F4FDF91CF9194
:100680001F910F91FF900C940B028091A10190910A
:10069000A2016E5F7F4F0E940B028091CE0190916C
:1006A000CF01C817D90778F6D093CF01C093CE01F8
:1006B000CACFFC010396928381832FEF3FEF3483EF
:1006C00023839683858390878783108208950F9272
:1006D0000FB6F8940F921F9211242F923F924F92CF
:1006E0005F926F927F928F929F92AF92BF92CF92C2
:1006F000DF92EF92FF920F931F932F933F934F93AD
:100700005F936F937F938F939F93AF93BF93CF9399
:10071000DF93EF93FF93A0914401B09145010DB693
:100720000D920EB60D9280916801882321F081E030
:1007300080935D015FC010925D01A0914401B09172
:100740004501E0914401F09145012D913C9187894B
:10075000908D82179307A8F08091440190914501F4
:100760008091440190914501259A2D9A2FEF87EAB7
:1007700091E6215080409040E1F700C000001D9AB2
:10078000F5CF2091670189E001C02150422F50E050
:10079000849FF001859FF00D1124EC58FE4F90814D
:1007A000992399F3A181B28112960D90BC91A02D4D
:1007B000B283A183289FC001112489589E4FA81796
:1007C000B90729F412968D919C919283818389E0D7
:1007D000849FF001859FF00D1124EC58FE4F01809D
:1007E000F281E02D868197819093450180934401A9
:1007F00020936701A0914401B0914501CD91CDBFF7
:10080000DD91DEBFFF91EF91DF91CF91BF91AF916D
:100810009F918F917F916F915F914F913F912F9118
:100820001F910F91FF90EF90DF90CF90BF90AF900E
:100830009F908F907F906F905F904F903F902F9000
:100840001F900F900FBE0F9008958F929F92BF92AE
:10085000CF92DF92EF92FF920F931F93CF93DF938C
:100860000FB6F8940F9280916801815080936801CF
:1008700080916801882379F080E00F900FBEDF91AE
:10088000CF911F910F91FF90EF90DF90CF90BF908D
:100890009F908F90089580916A01882369F3E0907A
:1008A0006301F0906401F0E0E0E039E041E0809124
:1008B0005E0181115EC0EF2B11F00E94CD00E0902F
:1008C0005B01F0905C01E114F10409F47DC189E061
:1008D000D82ECC24C3940FEF1FEF809168018111B3
:1008E00061C1C091CB01D091CC014E018FEF881A2C
:1008F000980A9092CC018092CB0181149104B9F4B2
:100900008091A1019091A2012091A3013091A401B5
:100910003093A2012093A1019093A4018093A3019D
:100920008091A7018F5F8093A7010E94CD008091E5
:10093000CE019091CF01B12C8816990608F026C1FE
:10094000E0914401F0914501E689DE9EF001112419
:10095000EC58FE4F8081823010F0BB24B39480911C
:100960005D01811103C0BB2009F425C1C0925D0166
:1009700022C1D7011696ED91FC91A489B5896685AF
:10098000778580899189EB019D838C83808991890A
:10099000EC017B836A83BF01645F7F4F11960D91E9
:1009A0001C9112970617170721F412969C938E93A9
:1009B0001197158A148A8C9181508C93A285B385E6
:1009C0008481958166817781EC017D836C8366816A
:1009D0007781EB019B838A83CF01029611960D915B
:1009E0001C9112970817190721F412967C936E93A5
:1009F0001197138612862C9121502C93A689209151
:100A000067012A1710F4A09367013A9FD0011124BF
:100A1000AC58BE4F11960D90BC91A02DB583A48308
:100A200014966D917C9115977783668314966D91DA
:100A30007C911597EB019B838A8315969C938E93EB
:100A400014979689939FD0011124AC58BE4FB38759
:100A5000A2878C918F5F8C93A0914401B091450146
:100A600056968C91981708F422CF40935D011FCFC2
:100A7000E091A101F091A2010580F681E02D0680B0
:100A8000F781E02D828193818816990628F490934E
:100A9000CF018093CE0154CFC285D38584819581C7
:100AA00026813781DC0115963C932E93149726817D
:100AB0003781D90113969C938E931297CF0102969A
:100AC00049815A814817590711F43A8329831386BB
:100AD0001286288121502883A489B5891097F9F0BE
:100AE0002685378540895189E9015D834C8340899A
:100AF0005189EA013B832A8311966D917C9112976B
:100B00009F01245F3F4F6217730721F412965C9395
:100B10004E931197158A148A2C9121502C93A689F3
:100B2000209167012A1710F4A0936701DA9ED00183
:100B30001124AC58BE4F11960D90BC91A02DB583D9
:100B4000A48314962D913C91159737832683149690
:100B50002D913C911597E9019B838A8315969C936F
:100B60008E93149796899D9DD0011124AC58BE4F49
:100B7000B387A2878C918F5F8C93E0914401F091B1
:100B800045018689981710F0BB24B394E091A10128
:100B9000F091A201808181116BCF1093CF0100935E
:100BA000CE01CECE80915B0190915C010196909335
:100BB0005C0180935B01D1E0ED1AF10809F08DCE64
:100BC00010925C0110925B0180915D01882309F411
:100BD00053CE0E94670381E050CE0F920FB6F89477
:100BE0000F921F9211242F923F924F925F926F9219
:100BF0007F928F929F92AF92BF92CF92DF92EF92AD
:100C0000FF920F931F932F933F934F935F936F9395
:100C10007F938F939F93AF93BF93CF93DF93EF9384
:100C2000FF93A0914401B09145010DB60D920EB60F
:100C30000D9213BE809168018111F9C08091CB01A2
:100C40009091CC0101969093CC018093CB010097B9
:100C500081F52091A1013091A2014091A301509111
:100C6000A4015093A2014093A1013093A4012093C9
:100C7000A3012091A7012F5F2093A701E091A1017B
:100C8000F091A2012081211107C02FEF3FEF309397
:100C9000CF012093CE010DC0E091A101F091A201FE
:100CA0000580F681E02D208131813093CF012093A2
:100CB000CE012091CE013091CF018217930710F41D
:100CC00020E0A1C020E039E0D32EE091A101F09115
:100CD000A2013081311107C08FEF9FEF9093CF01B8
:100CE0008093CE0190C0E091A101F091A201058016
:100CF000F681E02D0680F781E02D42815381841733
:100D0000950728F45093CF014093CE017CC0A28573
:100D1000B3854481558166817781EA017D836C8347
:100D200066817781EB015B834A83AF014E5F5F4F42
:100D300011960D911C9112970417150721F4129624
:100D40007C936E931197138612863C9131503C939D
:100D5000A489B5891097F9F066857785008911898E
:100D6000EB011D830C8300891189E8017B836A8371
:100D70001196ED90FC901297BF01645F7F4FE616CD
:100D8000F70621F412961C930E931197158A148A74
:100D90003C9131503C93A689309167013A1710F489
:100DA000A0936701DA9ED0011124AC58BE4F119672
:100DB0000D90BC91A02DB583A48314966D917C9168
:100DC00015977783668314966D917C911597EB0147
:100DD0005B834A8315965C934E93149746894D9D89
:100DE000D0011124AC58BE4FB387A2873C913F5F1E
:100DF0003C93E0914401F09145013689431708F492
:100E000064CF21E062CFE0914401F0914501E68991
:100E1000D9E0ED9FF0011124EC58FE4F8081823023
:100E200008F021E080915D0181110EC00AC080911F
:100E30005B0190915C01019690935C0180935B0152
:100E40006AC0222309F467C080916801882321F0D9
:100E500081E080935D015FC010925D01A09144012B
:100E6000B0914501E0914401F09145012D913C91F3
:100E70008789908D82179307A8F080914401909103
:100E800045018091440190914501259A2D9A2FEFBB
:100E900087EA91E6215080409040E1F700C00000D1
:100EA0001D9AF5CF2091670189E001C02150422FA2
:100EB00050E0849FF001859FF00D1124EC58FE4F07
:100EC0009081992399F3A181B28112960D90BC91E2
:100ED000A02DB283A183289FC001112489589E4F61
:100EE000A817B90729F412968D919C91928381835A
:100EF00089E0849FF001859FF00D1124EC58FE4F8E
:100F00000180F281E02D8681978190934501809345
:100F1000440120936701A0914401B0914501CD9116
:100F2000CDBFDD91DEBFFF91EF91DF91CF91BF91FA
:100F3000AF919F918F917F916F915F914F913F9171
:100F40002F911F910F91FF90EF90DF90CF90BF9066
:100F5000AF909F908F907F906F905F904F903F9059
:100F60002F901F900F900FBE0F900895CF93DF9397
:100F7000009751F0EC010E949401CE010E94710C87
:100F8000DF91CF910C942504DF91CF910895CF93F9
:100F9000DF9300D000D01F92CDB7DEB7E091B30150
:100FA000F091B4011081F12CE12C112329F005807E
:100FB000F681E02DE080F1800E9494010E948A0178
:100FC0006C018091A5019091A601C816D90608F080
:100FD00085C00E94B902D092A601C092A5010E94CC
:100FE00025040091C9011091CA010FB6F8940F921F
:100FF000D8015A96FC905A97FF2009F430C15C96AC
:101000004C915C97442301F150E016968D919C9190
:101010001797840F951F17969C938E931697149687
:101020002D913C9115978217930738F08D919C91E3
:10103000119717969C938E931697F8016681778186
:10104000CE0101960E94000DFA94D8015A96FC92A6
:101050005A9718968C91882339F0C80108960E94F7
:10106000E50081110E9467030F900FBED980D7FC65
:10107000B8CF0C811D81D8011A968D919C91892B36
:1010800021F0C80102960E94E7010E948A017C01BA
:101090008091A5019091A601E816F90610F40E942E
:1010A000B902F092A601E092A501EFEFED0DE93053
:1010B00008F097CF0E2E000CFF0BEB59F74FD8011D
:1010C00052968C9152970C94FA0CE808E8082B0978
:1010D00013092509E808E8082B091309D092A6018D
:1010E000C092A501112351F0CE14DF0470F00E94CC
:1010F0002504B601C7010E948F0273CFE091B101B0
:10110000F091B201808161E0811160E00091C9013C
:101110001091CA010FB6F8940F92D8015D968C9188
:101120005D978F3F11F45D961C92F801868D8F3F7D
:1011300009F4168E0F900FBED8015A968C915A97CB
:1011400081113CC05296ED91FC91A0914401B09167
:1011500045011F96FC93EE931E97A0914401B09118
:1011600045018481958151969C938E9350978091EF
:10117000440190914501A481B5810C9613969C93EE
:101180008E93129780914401909145010C9695831E
:101190008483E0914401F0914501C8014196958B0B
:1011A000848BF80181898F5F818BC7018C199D0920
:1011B000662311F08FEF9FEF0E94D702C8010E94B3
:1011C000A5010E94250481110CCF0E94670309CF5D
:1011D0008160F801828BCA80DB80648575856C0D27
:1011E0007D1D9601A701C8010E944102882309F4D0
:1011F000F8CED80152968C91529782FF10C01C965F
:101200006D917C916C0D7D1DA701C8010E946B0240
:10121000D8015096ED91FC91C8010995E2CE8E7FE0
:10122000F801828BF5CF816052968C9352976A8138
:101230007B811D967C936E931C976E0D7F1D97018D
:10124000A701C8010E944102CCCE81FD04C0C801A3
:101250000E94B607C6CE8E7FF801828BC2CE0F9059
:101260000FBE9CCE00E010E08091690181110CC09E
:1012700080917401823010F00E94670301151105FE
:1012800099F30E940000F0CF0FB6F8940F92E0910E
:101290007001F0917101C681D781CE0102960E9442
:1012A000E70180916A01815080936A018091690110
:1012B0008150809369010F900FBE8F89988D0E9495
:1012C000B607CE010E94B607CFCFCF93DF93EC01D4
:1012D0000E949401CE010E94D50BEC010E942504CE
:1012E000209769F4259A2D9A2FEF80E792E02150FC
:1012F00080409040E1F700C000001D9AF5CFCE017C
:10130000DF91CF9108955F926F927F928F929F921B
:10131000AF92BF92CF92DF92EF92FF920F931F9303
:10132000CF93DF93782E892E562E672E6A01922E48
:10133000132FCA010E9465095C01892B09F4EAC0D8
:1013400088E290E00E946509EC01892B09F4DFC076
:1013500088E2DE011D928A95E9F7B88EAF8AA60170
:1013600065EA70E0C5010E94090DB1E0CB1AD10811
:10137000EF89F88DEC0DFD1D652D762DCE0149967A
:101380009B01285F3F4FDB014D91BD01DC014D9377
:10139000CD01AB0141505109DA014C91442319F0C0
:1013A0006217730781F718A20E8B09A31B861A8692
:1013B0001D8A1C8AD987C88784E090E0801B910928
:1013C0009D878C87DB8BCA8B7082DF0111978C9293
:1013D00011971C92119780E88C9311971C92579744
:1013E0009C9211971C93B397F983E883F701D183FB
:1013F000C0830FB6F8940F9280916A018F5F80933B
:101400006A018091440190914501892B09F093C0B4
:10141000D0934501C093440180916A01813081F5E8
:1014200084E791E00E9459038DE791E00E945903FF
:1014300086E891E00E9459038FE891E00E945903E9
:1014400081E591E00E94590388E491E00E945903EC
:101450008EE591E00E9459038BE691E00E945903CA
:1014600088E991E00E94590381E591E09093A201FF
:101470008093A10188E491E09093A4018093A3015B
:1014800080915A018F5F80935A01AE8980916701E4
:101490008A1710F4A093670129E02A9FD001112434
:1014A000AC58BE4F11960D90BC91A02DBD83AC835E
:1014B00014968D919C9115979F838E831496ED9130
:1014C000FC911597CE0102969383828315969C9387
:1014D0008E931497EE89E29FF0011124EC58FE4F91
:1014E000FB87EA8780818F5F80830F900FBE80919A
:1014F000CD01882351F0E0914401F0914501968996
:101500008E89981710F40E94670381E004C0C5011A
:101510000E94B6078FEFDF91CF911F910F91FF903F
:10152000EF90DF90CF90BF90AF909F908F907F9083
:101530006F905F9008958091CD018111A1CFE091CE
:101540004401F091450196898E89891708F498CF56
:10155000D0934501C093440193CF0E94ED051895A7
:10156000789484B5826084BD84B5816084BD85B57E
:10157000826085BD85B5816085BD80916E0081608A
:1015800080936E0010928100809181008260809330
:101590008100809181008160809381008091800032
:1015A0008160809380008091B10084608093B1005D
:1015B0008091B00081608093B00080917A00846057
:1015C00080937A0080917A00826080937A00809183
:1015D0007A00816080937A0080917A00806880939D
:1015E0007A001092C10020910501309106018FEF21
:1015F00098E0821B930B90930201809301010E945B
:10160000550090EDE92E91E0F92E00E030E020E069
:1016100040EC50E067E371E082E399E00E948309C7
:10162000813009F0B7C00FB6F8940F928091C901CC
:101630009091CA01892B09F04FC08EEB91E00E9476
:10164000590385EB91E00E9459038EEB91E0909352
:10165000B4018093B30185EB91E09093B201809344
:10166000B10181E590E00E946509EC01009781F1EC
:101670004F96998388838AE08B8F85E08C8F0FB695
:10168000F8940F92888199812B8D4C8DBC01249FF9
:10169000600D711D11247D836C831A8E9B838A8358
:1016A0002150330B429FB001439F700D1124860FD0
:1016B000971F9F838E838FEF8D8F8E8FCE0108961D
:1016C0000E945903CE0141960E9459030F900FBE0C
:1016D000D093CA01C093C9010F900FBE8091C90178
:1016E0009091CA01892B09F455C087ECE82E81E05E
:1016F000F82E03E030E020E045E550E06CE371E0D7
:1017000087EC97E00E948309813009F043C0F89488
:101710002FEF3FEF3093CF012093CE018093CD0187
:101720001092CC011092CB01A89588E190EC0FB6F5
:10173000F894A895809360000FBE90936000A091EC
:101740004401B0914501CD91CDBFDD91DEBFFF9148
:10175000EF91DF91CF91BF91AF919F918F917F9149
:101760006F915F914F913F912F911F910F91FF903A
:10177000EF90DF90CF90BF90AF909F908F907F9031
:101780006F905F904F903F902F901F900F900FBEE3
:101790000F900895809100010E945500C0E0D0E0B4
:1017A0002097F1F30E940000FBCF0F931F93CF937C
:1017B000DF938230910510F482E090E0E091D40153
:1017C000F091D50130E020E0B0E0A0E0309799F44E
:1017D0002115310509F44AC0281B390B2430310585
:1017E000D8F58A819B816115710589F1FB0193838D
:1017F0008283FE0111C0408151810281138148170B
:101800005907E0F04817590799F4109761F01296BC
:101810000C93129713961C933296CF01DF91CF91C0
:101820001F910F9108950093D4011093D501F4CF27
:101830002115310551F04217530738F0A901DB019A
:101840009A01BD01DF01F801C1CFEF01F9CF9093FB
:10185000D5018093D401CDCFFE01E20FF31F819318
:1018600091932250310939832883D7CF2091D20117
:101870003091D301232B41F42091030130910401D5
:101880003093D3012093D2012091010130910201C4
:101890002115310541F42DB73EB740910501509116
:1018A0000601241B350BE091D201F091D301E21720
:1018B000F307A0F42E1B3F0B2817390778F0AC0173
:1018C0004E5F5F4F2417350748F04E0F5F1F509350
:1018D000D3014093D201819391939FCFF0E0E0E058
:1018E0009CCFCF93DF930097E9F0FC0132971382EE
:1018F0001282A091D401B091D501ED0130E020E039
:101900001097A1F420813181820F931F2091D20181
:101910003091D3012817390709F061C0F093D30142
:10192000E093D201DF91CF910895EA01CE17DF074E
:10193000E8F54A815B819E0141155105B1F7E90146
:10194000FB83EA8349915991C40FD51FEC17FD071A
:1019500061F4808191810296840F951FE90199833A
:101960008883828193819B838A83F0E0E0E01296F2
:101970008D919C9113970097B9F52D913C911197FA
:10198000CD010296820F931F2091D2013091D30195
:101990002817390739F6309751F51092D501109272
:1019A000D401B093D301A093D201BCCFD383C2831F
:1019B00040815181840F951FC817D90761F44E5F8C
:1019C0005F4F88819981480F591F518340838A81D5
:1019D0009B81938382832115310509F0B0CFF09369
:1019E000D501E093D4019ECFFD01DC01C0CF13826D
:1019F0001282D7CFEE0FFF1F0590F491E02D0994CE
:101A0000FB01DC0102C001900D9241505040D8F71B
:101A10000895DC0101C06D9341505040E0F70895F6
:101A2000F894FFCF030000D601800048656C6C6F0E
:101A300020576F726C642066726F6D205461736BF7
:101A40002D310048656C6C6F20576F726C64206696
:101A5000726F6D205461736B2D320049444C450008
:081A6000546D722053766300FF
:107E0000112484B714BE81FFF0D085E080938100F7
:107E100082E08093C00088E18093C10086E0809377
:107E2000C20080E18093C4008EE0C9D0259A86E02C
:107E300020E33CEF91E0309385002093840096BBD3
:107E4000B09BFECF1D9AA8958150A9F7CC24DD24C4
:107E500088248394B5E0AB2EA1E19A2EF3E0BF2EE7
:107E6000A2D0813461F49FD0082FAFD0023811F036
:107E7000013811F484E001C083E08DD089C08234E0
:107E800011F484E103C0853419F485E0A6D080C0E4
:107E9000853579F488D0E82EFF2485D0082F10E0AE
:107EA000102F00270E291F29000F111F8ED06801E7
:107EB0006FC0863521F484E090D080E0DECF843638
:107EC00009F040C070D06FD0082F6DD080E0C81688
:107ED00080E7D80618F4F601B7BEE895C0E0D1E017
:107EE00062D089930C17E1F7F0E0CF16F0E7DF06D8
:107EF00018F0F601B7BEE89568D007B600FCFDCFD4
:107F0000A601A0E0B1E02C9130E011968C91119780
:107F100090E0982F8827822B932B1296FA010C0160
:107F200087BEE89511244E5F5F4FF1E0A038BF0790
:107F300051F7F601A7BEE89507B600FCFDCF97BE46
:107F4000E89526C08437B1F42ED02DD0F82E2BD052
:107F50003CD0F601EF2C8F010F5F1F4F84911BD097
:107F6000EA94F801C1F70894C11CD11CFA94CF0C13
:107F7000D11C0EC0853739F428D08EE10CD085E9AC
:107F80000AD08FE07ACF813511F488E018D01DD067
:107F900080E101D065CF982F8091C00085FFFCCF94
:107FA0009093C60008958091C00087FFFCCF809118
:107FB000C00084FD01C0A8958091C6000895E0E648
:107FC000F0E098E1908380830895EDDF803219F02E
:107FD00088E0F5DFFFCF84E1DECF1F93182FE3DFCA
:107FE0001150E9F7F2DF1F91089580E0E8DFEE27F6
:047FF000FF270994CA
:027FFE00040479
:00000001FF
